:020000040800F2
:100000000807002095020008E1150008D91500082E
:10001000DD15000841040008A117000800000000D9
:10002000000000000000000000000000E9150008CA
:100030004504000800000000E5150008ED15000863
:10004000AF020008AF020008AF020008AF020008CC
:10005000AF020008AF020008AF020008AF020008BC
:10006000AF020008AF020008AF020008AF020008AC
:10007000AF020008AF020008AF020008AF0200089C
:10008000AF020008AF020008AF0200080000000045
:10009000000000000000000000000000AF020008A7
:1000A000AF020008AF020008AF020008AF0200086C
:1000B000000000000000000000000000AF02000887
:1000C000AF020008AF020008AF020008AF0200084C
:1000D000AF020008AF020008AF02000800000000F5
:1000E000AF020008AF02000800000000000000009E
:1000F000000000000000000000000000AF02000847
:100100000000000000000000AF0200080000000036
:100110000000000000000000AF0200080000000026
:10012000AF020008AF020008AF020008AF020008EB
:10013000AF02000800000000000000000000000006
:1001400000000000000000000000000000000000AF
:10015000AF020008AF020008AF020008AF020008BB
:10016000000000000000000000000000000000008F
:10017000000000000000000000000000000000007F
:10018000AF020008AF0200080000000000000000FD
:1001900000000000AF0200080000000000000000A6
:1001A000000000000000000000000000000000004F
:1001B000000000000000000000000000AF02000886
:1001C000AF020008AF02000800F002F800F052F899
:1001D00014A696E8000CB244B344DA4501D100F00D
:1001E00049F8BAE80F000FA696E83000A5EB040521
:1001F00004EB0607AAEB0704A7F101074FEA151560
:100200004FEA3414A4F10104AC4201D300F032F8F7
:1002100013F0010F18BFFB1A43F0010300F001F8BF
:10022000DBE718472017000040170000103A24BFF2
:1002300078C878C1FAD8520724BF30C830C144BF4B
:1002400004680C6070470000704700000023002421
:1002500000250026103A28BF78C1FBD8520728BFD6
:1002600030C148BF0B6070471FB501F051FB1FBD87
:1002700010B510BD00F0A9F81146FFF7F5FF01F029
:1002800091FA00F0C7F803B4FFF7F2FF03BC00F0E7
:10029000CFF800000948804709480047FEE7FEE71D
:1002A000FEE7FEE7FEE7FEE7FEE7FEE7FEE7FEE726
:1002B00004480549054A064B704700009D16000892
:1002C000C9010008080100200807002008030020D9
:1002D0000803002053EA020C00F069802DE9F04B7E
:1002E0004FF00006002B1FBFB3FA83F503FA05F4A5
:1002F00024FA05F65E4012BF1643B2FA82F502FAFE
:1003000005F4C5F120051EBF22FA05FC44EA0C04E1
:10031000203556EA044C4FEA144418BF641C4FF0D1
:1003200000084FF00009904271EB030C39D300290B
:1003300019BFB1FA81F701FA07F6B0FA80F700FAAF
:1003400007F6C7F120071EBF20FA07FC46EA0C0695
:100350002037B6FBF4FCA7EB0507103F07F01F0B97
:10036000CBF120062CFA06F60CFA0BFB44BFB34681
:100370000026202FA4BF5E464FF0000B5BEA060C60
:1003800008BF4FF0010B19EB0B0948EB0608ABFB5C
:10039000027C06FB02CC0BFB03CCC01B71EB0C01F7
:1003A000C1E70B46024641464846BDE8F08B13B50F
:1003B000084318BF4FF0FF300146AFF30080BDE89F
:1003C0001C407047704770477047754600F02CF826
:1003D000AE4605006946534620F00700854618B032
:1003E00020B5FFF765FFBDE820404FF000064FF055
:1003F00000074FF000084FF0000BAC46ACE8C00916
:10040000ACE8C009ACE8C009ACE8C00921F00701BC
:100410008D46704710B50446AFF300802046BDE816
:100420001040FFF730BF0000004870471000002068
:1004300001491820ABBEFEE726000200704700000D
:10044000FEE700007047000070B581B00022009206
:1004500090F83C20012A03D10221084601B070BD6A
:100460000E6801220A2E80F83C2009D3B2B2520055
:10047000D0F800E012FA86F21E3A0EF10C0305E005
:10048000D0F800E006EB46020EF110034FF0070C27
:100490001D680CFA02F4A5431D608D681C6805FAFE
:1004A00002F222431A60496806290FD801EB810144
:1004B0004A1F71461F2351F8345F934025EA030316
:1004C0000B60B3B203FA02F214E000BF01EB810348
:1004D0000C29B2B204D8714651F8304F233B03E0E7
:1004E000714651F82C4F413B1F259D4024EA0505DC
:1004F0009A400D600B6842F2043CC4F2010C1A43AE
:10050000ACF541739E450A603BD1122E06D1DCF852
:10051000001041F48001CCF8001032E026F0010117
:1005200010292ED1DCF80010102E41F40001CCF877
:10053000001026D140F20801C2F2000109684DF610
:100540008362C4F21B32A1FB0212910C01EB810108
:10055000490000910099A1B10099013900910099D9
:1005600079B1009901390091009951B1009901398F
:100570000091009929B10099013900910099002951
:10058000EAD1002180F83C10084601B070BD00009F
:100590000068C06C70470000002804BF012070474D
:1005A00010B50446006C00283ED0206CC00645D42F
:1005B000206C41F202118843023042F2043120647F
:1005C000C4F20101086820F4403008600A6894E829
:1005D00009101A43D4F810E00A604168012321F49D
:1005E000807141604168C0F6007341EA0E214160AC
:1005F000416821F040714160416841EA0C0141606D
:10060000816821F400618160E16882681143816042
:10061000A16A8268994222F070628260826813D176
:1006200022F0405119E000BF204600F065F800209C
:10063000606484F83C00206CC006B9D5012000211C
:1006400084F83C1010BD00BF11438160816821F027
:1006500040518160E16A826811438160816821F0C4
:10066000020181608168227E94F8203041EA4201D3
:100670008160416883B141F40061416041684EF29C
:10068000000221F460414160616ACFF6FF72436865
:1006900002EB4131194301E021F400614160C16A7C
:1006A00040F2000C21F47001C162E2696169CFF689
:1006B000F07CC36A0CEB02521A43C262826822F4D5
:1006C0000072826094F83020836843EA422282609C
:1006D000826822F480628260826842EA81218160BD
:1006E00000206064216C012262F301012164002179
:1006F00084F83C1010BD000080B586B042F20001C5
:100700000068C4F20101002288420592049201D0DF
:1007100006B080BD43F630000092C4F20200436987
:1007200043F480734361436903F480730093009B37
:100730000092036843F001030360006800F00100C9
:1007400000900098012001900320CDE9020201F5FC
:10075000604001A900F00AF906B080BD70B50446FA
:1007600000680D468268520544BF80685FEAC05049
:1007700038D400F0D5F921680A68920749D40646B2
:10078000681C3CD0DDB90868800721D5086880075F
:100790003FD4086880071BD50868800739D40868EB
:1007A000800715D50868800733D4086880070FD5FF
:1007B00008688007E7D52CE00868800729D400F096
:1007C000AFF9801B2168A842F6D908688007F3D4E6
:1007D000206C40F004002064002084F83C000320DA
:1007E00070BD00BF206C40F020002064002084F821
:1007F0003C00012070BD00BF0868800709D408686C
:10080000800706D4086880075CBF08685FEA8070CC
:10081000F2D56FF012000860206C40F40070206484
:10082000886810F0405F01D0002070BD207E002855
:10083000FAD1C86A10F4700F02D088684005F3D46A
:10084000206C20F480702064206CC004ECD4206CF8
:1008500040F001002064002070BD000010B581B0A0
:100860000021009190F83C10012903D1022001B031
:1008700010BD00BF0468012180F83C10214651F8EA
:10088000083FDB0729D10B684DF6836243F0010373
:100890000B6040F20803C2F200031B68C4F21B3273
:1008A000A3FB02239A0C02EB42020092009AA2B12F
:1008B000009A013A0092009A7AB1009A013A0092A5
:1008C000009A52B1009A013A0092009A2AB1009A15
:1008D000013A0092009A002AEAD10A68036CD20712
:1008E0000CD143F01001016400F1440101200A68B9
:1008F00010430860002001B010BD00BF40F201723B
:1009000023EA020202F5807202646268520504D58D
:10091000026C012363F30D320264026C4FF0000C91
:100920000023D20444BF426C22F0060342F2000EC0
:10093000436480F83CC06FF02200C4F2010E2060D6
:10094000DEF80403C00609D074450BD1DEF80800B8
:1009500010F0405F06D14FF08040C8E7086810F003
:10096000405FF8D0002001B010BD00002DE9F04F2D
:1009700082B043F6440C43F6004E40F60002C4F247
:10098000020CC4F2010EC4F2020207230024002666
:100990004FF00008904208BF0223009342E000BFDE
:1009A00004F00C020F25954029EA050507FA02F22A
:1009B0004FEA98032A434BF82320DEF808204B68BF
:1009C00042EA0A0543F60C49DF0258BF22EA0A054B
:1009D000CEF80850C4F20109D9F800209F0242EA7B
:1009E0000A0558BF22EA0A05C9F80050DEF80420BB
:1009F0009F0342EA0A0558BF22EA0A05CEF80450CE
:100A0000DEF80020DB0342EA0A0558BF22EA0A05A5
:100A1000CEF8005008F101080236B8F1100F04F1C9
:100A2000040473D00D68012202FA08F215EA020AE2
:100A3000F0D0D1F804B003230BF003077D1EB340C0
:100A4000012D6FEA030911D88368CD6803EA090311
:100A5000B5402B438360436823EA0202CBF30013C3
:100A600003FA08F31A43426004E000BF032F01D1E8
:100A700003271EE0C2688B6802EA0902B3401A43EA
:100A8000022FC26015D16FF0030202EA580202443D
:100A900004F01C050F23D2F820B003FA05F70B6908
:100AA0002BEA0707AB403B431362D1F804B00BF0CD
:100AB0000307026807FA06F302EA09021A431BF465
:100AC000403F0260A6D000270197DCF80020AEF579
:100AD0007E7B42F48042CCF80020DCF8002002F457
:100AE00080420192019A28F003025BF802900022F2
:100AF000C4F2020290423FF453AF40F20042C4F20B
:100B00000202009F904208BF012749E702B0BDE8FA
:100B1000F08F00000069084018BF012070470000F6
:100B200040F20410C2F200000068704740F200007A
:100B300040F20411C2F20000C2F2000100780A681B
:100B4000104408607047000080B543F60040C4F2CE
:100B50000200016841F400710160016841F48061A4
:100B60000160016841F480710160032000F074F8B5
:100B70000F2000F005F800F027F8002080BD0000ED
:100B800070B540F20006C2F2000640F20801327869
:100B9000C2F200014FF47A730968B3FBF2F2044623
:100BA000B1FBF2F1084600F057FB0F2C4FF00105A6
:100BB00008D838B94FF0FF3021460022002500F058
:100BC0001FF87460284670BD82B0002043F64001D3
:100BD0000190C4F202014A6842F480424A604A68C5
:100BE00002F480420192019A0090086840F080501F
:100BF0000860086800F080500090009802B07047CC
:100C000010B54EF60C5CCEF2000CDCF80030C3F3ED
:100C1000022E8EF00704042C28BF0424BEF1030327
:100C20004FF0FF3E0EFA04F438BF0023A143994071
:100C30000EFA03F39A43114300F00F0200F16043F0
:100C40000901043A03F564436244002848BF02F1F5
:100C50000C03197010BD00004EF60C51CEF20001CD
:100C60000A684FF6FF031A4060F30A2242F08060E0
:100C700040F0FD7008607047002804BF01207047F5
:100C80002DE9F04143F60808C4F202080446D8F8FA
:100C9000F8030D4600F00700884207D288F8F853A1
:100CA000D8F8F80300F00700A84277D12068810740
:100CB00017D5410705D5D8F8001041F4E051C8F820
:100CC0000010010705D5D8F8001041F46041C8F8BC
:100CD0000010D8F80010A26821F0F0011143C8F804
:100CE0000010C00740D1D8F8F80300F00700A84270
:100CF00007D988F8F853D8F8F80300F00700A8429D
:100D00004CD12068410707D5D8F80010E26821F4DB
:100D1000E0511143C8F80010000708D5D8F80000CA
:100D2000216920F4604040EAC100C8F8000000F0EA
:100D30007DF8D8F8001041F62A12C1F30311C0F66D
:100D40000002515C40F2080220FA01F140F2040076
:100D5000C2F200000068C2F200021160FFF710FF4B
:100D60000020BDE8F08100BF6068811E022907D223
:100D700058F8081C89015CBF0120BDE8F08111E032
:100D8000012807D158F8081C89035CBF0120BDE881
:100D9000F08107E058F8081C890703D40120BDE85A
:100DA000F08100BFD8F8001021F003010843C8F813
:100DB0000000FFF7B5FE064641F28837D8F800007C
:100DC000616800F00C00B0EB810F8CD0FFF7A8FE3B
:100DD000801BB842F2D90320BDE8F08140F2080040
:100DE00043F60801C2F20000C4F20201006809687B
:100DF00041F63A12C1F38221C0F60002515CC840AC
:100E00007047000040F2080043F60801C2F20000FB
:100E1000C4F202010068096841F63A12C1F3423196
:100E2000C0F60002515CC8407047000010B543F6A0
:100E30000404C4F20204606800F00C0008280BD01F
:100E4000042819BF42F20040C0F2F40047F6400007
:100E5000C0F27D1010BD00BF2068216823684902E0
:100E600047F64001C0F27D1100F03F02C3F3881045
:100E70005CBF42F20041C0F2F401A1FB000100237B
:100E8000FFF728FA21680222C1F3014102EB410178
:100E9000B0FBF1F010BD0000002804BF0120704736
:100EA0002DE9F04182B00446007843F60006C00701
:100EB000C4F202060CD0B06800F00C00042840F028
:100EC00081803068800303D56068002800F070815D
:100ED000207880071BD5B06810F00C0F09D0B068DF
:100EE00000F00C00082840F087807068400200F194
:100EF00083803068800703D5E068012840F058817E
:100F00003068216920F0F80040EAC10030602078A4
:100F1000000713D4207840072AD4A569002D00F0DB
:100F20004281B06800F00C00082840F0A180012D3B
:100F300040F01081012002B0BDE8F0816069002816
:100F400040F20000C4F2472000F07E800121C0F88A
:100F5000801EFFF7E5FD0546706F8007DAD4FFF7C6
:100F6000DFFD401B0228F7D9032002B0BDE8F08165
:100F7000306C5FEAC0080AD400200190306C40F069
:100F800080503064306C00F080500190019847F23E
:100F90000007C4F200073868C00547D4386840F439
:100FA00080703860FFF7BCFD054600BF3868C0059B
:100FB0003CD4FFF7B5FD401B0228F7D9032002B04F
:100FC000BDE8F081B06800F00C00082803D170681B
:100FD00040023FF576AF6068B0F5803F07D0B0F5CE
:100FE000A02F40F09B80306840F480203060306853
:100FF00040F4803030609CE0E06800285CD0002045
:10100000C4F2472001210160FFF78AFD054600BFB9
:10101000306880073FF574AFFFF782FD401B022860
:10102000F6D9032002B0BDE8F08100BFA068012816
:1010300005D0052854D1306F40F004003067306F80
:1010400040F00100306756E00021C0F8801EFFF735
:1010500067FD0546706F80077FF55CAFFFF760FDA9
:10106000401B0228F6D9032002B0BDE8F08100BF82
:101070000027C4F2472700203866FFF751FD022DF4
:1010800005460DD13068800140F19680FFF748FD9C
:10109000401B02284FF00300F4D902B0BDE8F081F4
:1010A0003068800140F17F80FFF73AFD401B022845
:1010B0004FF00300F4D9F0E70020C4F247200021EC
:1010C0000160FFF72DFD0546306880077FF51FAFF3
:1010D000FFF726FD401B02284FF00300F4D9DCE7A0
:1010E000316F002821F001013167316F21F00401D7
:1010F000316700F08580FFF713FD054641F2883720
:10110000306F800700F18E80FFF70AFD401BB84268
:10111000F6D9032002B0BDE8F08100BF3168002895
:1011200021F480313160316821F48021316000F098
:101130008380FFF7F5FC0546306880033FF5C8AEB5
:10114000FFF7EEFC401B6428F6D9032002B0BDE88F
:10115000F08100BF7068E16900F480028A4227D103
:10116000216A00F03F028A4222D147F6C071626ACA
:101170000140B1EB821F1BD1A16A4FF6FF73C90377
:10118000994300F44032A1F580318A4210D1E16ADE
:1011900000F07062B2EB016F0AD1216B00F0E04009
:1011A000B0EB017F04D1002002B0BDE8F08100BFA8
:1011B000012002B0BDE8F08104F11C052FCD246BA5
:1011C000084340EA8210D9034FF6FF729143A1F51C
:1011D000803140EA0560084340EA047070600120F5
:1011E0003866FFF79DFC044630688001DBD4FFF7CA
:1011F00097FC001B02284FF00300F5D94DE700BF14
:10120000FFF78EFC054641F2883700BF306F80073C
:1012100008D5FFF785FC401BB8424FF00300F5D915
:101220003BE700BFB8F1000F3FF577AE306C20F020
:101230008050306471E600BFFFF772FC054600BFC6
:10124000306880037FF544AEFFF76AFC401B6428DA
:101250004FF00300F4D920E7411E0020B0EB116FDE
:101260001CBF012070474EF21002CEF20002516006
:101270004EF62351CEF20001F0230B70072190604F
:1012800011607047002804BF0120704710B5044664
:1012900090F83D0028B9002084F83C00204600F07A
:1012A00021F8242084F83D002068C16821F4005111
:1012B000C160204600F0FCF92068016921F49041EA
:1012C0000161416921F02A014161C16841F4005185
:1012D000C16000202021206484F83D1084F83E1075
:1012E00010BD0000016841F20040C4F201008142DB
:1012F00018BF704780B586B0002143F630020191D7
:10130000C4F20202536900F5744043F020035361B4
:10131000536903F020030193019B0191136843F08B
:1013200004031360126802F004020192019AC022C1
:1013300001920222CDE902210321049108210591A5
:1013400001A9FFF713FB06B0BDE88040704700001D
:101350002DE9F04381B0044690F83D0020280DD1DE
:101360000F4600294FF0010000F0DD801646002AEC
:1013700000F0D98094F83C00012803D1022001B08C
:10138000BDE8F083012084F83C0000202064212087
:101390001D4684F83D00FFF7C3FBA684E684A168E0
:1013A0000646B1F5805F03D12069002800F0108166
:1013B000B8460027002084F83C00E18C2068002912
:1013C00000F0908005F101090DE000BFB8F1000FB9
:1013D00028D018F8011B4160E18C0139E184E18CCF
:1013E000002900F07F8001680906EFD4B9F1000FF1
:1013F0000AD0FDB1FFF794FB801BA8421AD82068E1
:1014000001680906F6D5E1E701680906DED401683E
:1014100009065CBF01685FEA0161D7D4016809066B
:10142000F2D5D3E737F8021B4FF000086FF35F21C6
:10143000D1E700BF206850E8030F216820F4D07086
:1014400041E80302BAB3206850E8030F216820F492
:10145000D07041E8030272B3206850E8030F21689E
:1014600020F4D07041E803022AB3206850E8030F4B
:10147000216820F4D07041E80302002ADAD11AE092
:10148000206850E8050F216820F0010041E80502BE
:10149000DAB1206850E8050F216820F0010041E82A
:1014A000050292B1206850E8050F216820F0010084
:1014B00041E805024AB1206850E8050F216820F094
:1014C000010041E80502002ADAD1202084F83D001D
:1014D00084F83E00002084F83C00032001B0BDE801
:1014E000F08300BF0168490619D4FDB1691C0DD114
:1014F0000168490613D4016849065CBF01685FEAC8
:1015000041610CD401684906F2D508E0FFF708FBF9
:10151000801BA8420AD8206800684006F6D5202023
:1015200084F83D00002001B0BDE8F083206850E859
:10153000030F216820F4D07041E80302E2B3206871
:1015400050E8030F216820F4D07041E803029AB3F9
:10155000206850E8030F216820F4D07041E80302AE
:1015600052B3206850E8030F216820F4D07041E89E
:101570000302002ADAD11FE0206850E8050F216835
:1015800020F0010041E80502002A9ED0206850E8C2
:10159000050F216820F0010041E80502002A3FF410
:1015A00094AF206850E8050F216820F0010041E861
:1015B0000502002A3FF489AF206850E8050F216832
:1015C00020F0010041E80502002AD5D17DE700BFE7
:1015D0004FF00008EEE60000FEE70000FEE7000026
:1015E000FEE700007047000070470000FFF79EBA5A
:1015F000B0B594B0002443F640000C94CDE90A4401
:10160000CDE908440694CDE90444CDE902440194AF
:10161000C4F202000168022541F0805101600068B7
:1016200000F080500190019847F200000194C4F24C
:101630000000016841F440410160006800F440404E
:101640000190019801200A9010200B9008200F9023
:101650006420CDE910050420CDE9120507A80795FF
:10166000CDE90D54FFF718FC20B1EFF3108072B6EE
:10167000FEE700BF0F20CDE902054FF48050CDE911
:10168000050402A803210494FFF7F6FA20B1EFF352
:10169000108072B6FEE700BF14B0B0BD4EF68850A1
:1016A000CEF20000016841F4700101607047000053
:1016B00010B504460068D4E902C22369016921F427
:1016C000405111430161626943EA0C01E36911432E
:1016D000C268194349F20C639A431143C1604169DE
:1016E000A26921F4407141F20043114340F4806249
:1016F000C4F201039A42416102D1FFF783FB01E08A
:10170000FFF76CFBE16963681922B1F5004FA0FB9C
:10171000020123D15A00DB0FFEF7DCFD48F21F5116
:10172000C5F2EB11A0FB01235A094FF69C73C0F6DA
:10173000FF7303F1805302FB0300322303EBC0006D
:10174000A0FB01014FF4F87000EA111000EB021049
:10175000C1F3421108442168886010BD9A009B0FB4
:10176000FEF7B8FD48F21F51C5F2EB11A0FB0123B3
:101770005A094FF69C73C0F6FF7302FB0300322335
:1017800003EB0010A0FB0101F02000EA511000EB78
:101790000210C1F3431108442168886010BD0000A5
:1017A000FEE7000086B00024C4F20204FFF7CCF983
:1017B000FFF71EFF002543F63000CDE904550095E4
:1017C000C4F202000168012641F0010101600168D4
:1017D00001F00101009100990095016841F00401B8
:1017E0000160006801A900F0040000900098122038
:1017F000CDE9010520460396FFF7B8F840F2BC009A
:101800000123A4F56041C2F20000C0F60073049504
:101810004FF48032057680F82050C0E90A35C66161
:1018200080F8305080E82600C0E903554661FEF795
:10183000B3FE28B1EFF3108072B600BFFEE700BF21
:1018400040F2BC00C2F2000001A9CDE901560395A7
:10185000FEF7FAFD20B1EFF3108072B6FEE700BF8D
:1018600040F27007C2F20007A4F56C41384640F818
:10187000081F4FF4E13100220C23C0E90112C0E936
:101880000322C0E90532C261FFF7FCFC20B1EFF38F
:10189000108072B6FEE700BF40F2BC05C2F2000540
:1018A0004FF002084FF0010907F108062846FEF73D
:1018B000D5FF28466421FEF751FF18B92846FEF7E8
:1018C00067FE388020460221FFF724F960B9388886
:1018D000394600BA000C01F8029FA7F80300304611
:1018E00003226423FFF734FD20461021FFF712F98D
:1018F0000028DBD13888394600BA000C01F8028F85
:10190000A7F80300304603226423FFF721FDCDE74B
:10191000F1EE100A4FF6FF71C0F2C03120EA01006B
:1019200040F04070E1EE100A704700000000000037
:10193000000001020304060708090000000001027C
:1019400003040000681900080000002010000000D7
:101950002C0200087819000810000020F80600008A
:101960004C02000800000000010000001000000010
:081970000024F4000000000057
:04000005080001C925
:00000001FF
