:020000040800F2
:1000000028080020BD010008911500088F15000880
:1000100000000000000000000000000000000000E0
:10002000000000000000000000000000951500081E
:10003000000000000000000093150008971500085C
:10004000CF01000800000000CF010008CF01000828
:10005000CF010008CF010008CF010008CF01000840
:1000600000000000CF010008CF010008CF01000808
:10007000CF010008CF010008CF01000800000000F8
:10008000A51500080000000000000000CF010008D6
:1000900000000000CF010008CF010008CF010008D8
:1000A000CF010008CF010008CF010008CF010008F0
:1000B000CF01000800000000000000000000000068
:1000C00000F002F800F04EF812A030C808382418EA
:1000D0002D18AC4201D100F045F80FCCA246AB463A
:1000E0000CA730CF2D1B083F3F197C427F1E544484
:1000F0002D090426F441641EAC4201D300F032F80D
:100100000126334200D0FB1A3343984754465D46DC
:10011000DFE70000B8210000D8210000103A02D328
:1001200078C878C1FAD8520701D330C830C101D598
:1001300004680C6070470000704700000023002432
:1001400000250026103A01D378C1FBD8520700D30E
:1001500030C100D50B6070471FB500F061F81FBDBE
:1001600010B510BD00F067F81146FFF7F5FF01F07C
:100170005DFC00F07FF803B4FFF7F2FF03BC00F072
:1001800085F8000030B40C490C684A682368106890
:10019000C0181060241D121D8C4207D28A4208D25A
:1001A0000C604A6030BC4000400870470C00DC3CEA
:1001B000F6E70A00DC3AF3E724010020074880470D
:1001C00007480047FEE7FEE7FEE7FEE7FEE7FEE73B
:1001D00004480549054A064B70470000A31500086E
:1001E000C100000828020020280800202804002060
:1001F000280400200B4A30B511460B4C60310B46E9
:10020000DC3B0CC1372106E0020C8D0012185A515C
:10021000064A504300190A46491E002AF4DC30BD44
:100220000120E7E7C4000020E119D666CD0D0100EA
:10023000704770477047754600F024F8AE460500D9
:1002400069465346C008C000854618B020B5FFF780
:10025000BFFF60BCB64600260027C0C5C0C5C0C5EC
:10026000C0C5C0C5C0C5C0C5C0C5403D49084900DE
:100270008D46704710B50446C046C0462046FFF77D
:100280007AFF10BD004870472C010020014918205A
:10029000ABBEFEE72600020070470000ED4A1018D2
:1002A000C17340797047C046F0B581B0032000901B
:1002B000C143FF22F4320023E64D03E00024F4732F
:1002C0001B1D891C6E18747A002C23D1B77B002F5C
:1002D00013D0F47C032C15D0022C16D0012C19D18C
:1002E0003479012C16D10024B473EC18E48B3B480C
:1002F00084424DD8944254D863E03479032C09D118
:10030000012406E00124747202E03479012C34D116
:100310000024B47300295FD0B47A002CD0D1F77BCD
:10032000002F09D0347D012C0BD0022C16D0032CC9
:10033000C6D10124B472C1E77479032CC0D1012461
:10034000BDE77479012CBBD10024F473EC18248C24
:10035000224884420ED894422CD83AE07479012C79
:10036000ACD0EC18248C1D4884421DD9032F1DD11C
:100370000124F4730098B072A2E7EC18E48B1748DC
:10038000844208D9022F0AD0032FC3D10124B473A9
:1003900000987072BEE794420FD9022FBAD100982C
:1003A000B07302247472B5E794420DD9022F87D13D
:1003B0000098F0730224B47282E7012FAAD10224BC
:1003C000B47301247472A5E7012F00D078E70224EA
:1003D000F4730124B47273E701B0F0BDB70B0000F1
:1003E0009C48002141618161C16141818181018419
:1003F00041848184C1840172417201604160C17491
:10040000817441740174C1817047C046F0B581B0F8
:100410000520060701243046214600F0FDF98D4FE6
:10042000397803291AD8C0467944097949008F449C
:100430000104070F012811D108E000280ED109E0BE
:10044000B98A64290AD1002800D18CE03C7005E00B
:10045000012803D10020B8820220387002253046DE
:10046000294600F0D9F97978032917D87944097910
:1004700049008F440104070E012808D00EE000282F
:100480000CD108E0F98A642908D100286DD07C706D
:1004900004E0012802D10020F8827D70042130465A
:1004A00000F0BAF9B978032918D8C0467944097917
:1004B00049008F440104070E012808D00EE00028EF
:1004C0000CD108E0398B642908D1002850D0BC70C9
:1004D00004E0012802D100203883BD700821304695
:1004E00000F09AF9F978032918D8C04679440979B7
:1004F00049008F440104070E012808D00EE00028AF
:100500000CD108E0798B642908D1002833D0FC7025
:1005100004E0012802D100207883FD70BC488021CE
:1005200000F07AF9397903291BD8C0467944097952
:1005300049008F440104070F012808D011E000286A
:100540000FD109E0B98B64290BD1002816D03C717A
:1005500001B0F0BD012804D10020B8833D7101B085
:10056000F0BD01B0F0BD032077E70320787095E778
:100570000320B870B2E70320F870CFE7032038718A
:1005800001B0F0BD80B5FFF741FFFFF78DFE80BDE4
:100590003048002141720172C1718171417170470F
:1005A0002C48818A632920D9817A002922D1C183EC
:1005B000C18A632924D9C17A002926D10184018BFB
:1005C000632928D9017B00292AD14184418B6329E1
:1005D0002CD9417B00292ED18184818B632930D98C
:1005E000817B002932D1C1847047491C8182817A84
:1005F0000029DCD0C18B491CC183C18A6329DAD8A8
:10060000491CC182C17A0029D8D0018C491C0184BF
:10061000018B6329D6D8491C0183017B0029D4D0E2
:10062000418C491C4184418B6329D2D8491C4183A8
:10063000417B0029D0D0818C491C8184818B632926
:10064000CED8491C8183817B0029CCD0C18C491C28
:10065000C18470478C010020B0B5044600F0F2F868
:100660000546601C02D098480078041900F0EAF8AA
:10067000401BA042FAD3B0BDF0B58AB00991096819
:10068000002900D1BCE006465E48864201D0052024
:1006900000E003200090002707973C46089710E0F1
:1006A0000A432A607F1C099801680846F840089AA6
:1006B00008320892079A121D0792A41C002800D144
:1006C0009EE001250295BD402940EBD003970191A2
:1006D000324603231846A040C14327460998446880
:1006E00020461840461E012E06910594049710D806
:1006F00093680B400999CE68BE401E439660E3069E
:10070000DB0F039FBB405668AE431E435660164640
:1007100007E003281646039F03D11846059A049C58
:100720001DE0F36806990B40099A9568049CA54062
:100730001D43F5600228059A11D11C200799084035
:100740000F228240FB089B00F3181D6A954309990C
:100750000A6982402A431A624A6803201040A04076
:10076000336806990B40034333609003800F99D0A0
:1007700003203A46824324488018026E05231B0753
:100780009E420AD0224B9E4205D0224B9E420099A7
:1007900004D1022102E0029900E000211823089D03
:1007A0002B400F259D40AA436030994011430160C2
:1007B000154D2A6809984068C30207D501990A4374
:1007C0002A606A68830207D48A4306E001998A4353
:1007D0002A606A688302F7D50A436A600B4D6A682B
:1007E000830305D50A436A602A68C00306D557E724
:1007F0008A436A602A68C00300D551E78A4350E7FC
:100800000AB0F0BD000C00500018024080180240F1
:10081000000400500008005000690840411E884153
:10082000704742690B4693430A401104C91881611D
:100830007047002A02D01822815070472822815028
:1008400070470000054800687047C0461E480078A1
:1008500002490A68101808607047C0462402002048
:1008600010B501242002D5490A6802430A6003201A
:1008700000F00AF8002801D0204610BD00F026F84C
:100880000024204610BDC04670B50F4E31780124BB
:10089000002916D005467D20C00001F0FBFB014673
:1008A000CC48006801F0F6FB00F0A6FB032D08D849
:1008B000002806D10024E0432946224600F028F80B
:1008C0007560204670BDC0463800002082B00948DF
:1008D0004168012211434160416811400191019931
:1008E000110702680A4302600068084000900098FF
:1008F00002B070473C100240002805D41F21084078
:1009000001218140014801607047C04600E100E0DC
:10091000002805D40322034693430A4A9A1803E0A9
:100920000C220240064BD2188007C00E8901C9B2C2
:100930008140FF238340106898430843106070474C
:1009400014ED00E000E400E0F0B581B00325690299
:100950001E4E3246143A13688B430343136001243E
:1009600061020022884204D19A480168306840053B
:1009700002D4104601B0F0BD0092A7020620484301
:10098000134901F087FB201A022816D0316839423A
:1009900017D0012811D03168394212D000280CD06C
:1009A000316839420DD0001D032806D03168394224
:1009B000EAD1009A104601B0F0BD2A46104601B0B7
:1009C000F0BD009A104601B0F0BDC0461470004062
:1009D00040420F00F0B583B00D46012100281BD026
:1009E000019102907548006807242040A84216D261
:1009F00072490868A04328430860714EFFF722FF40
:100A000007466E4800682040A84208D0FFF71AFF4A
:100A1000C01BB042F5D90321084603B0F0BD029EC9
:100A200030688107674B0CD5410703D521031A684D
:100A30000A431A600F2109021A688A43B1681143F8
:100A40001960C0071BD15D4800682040A8422CD91E
:100A50005A490868A04328430860594FFFF7F2FE3F
:100A60000646564800682040A8421ED0FFF7EAFE1E
:100A7000801BB842F5D90321084603B0F0BD0298A7
:100A8000406803285DD8810001A251588F46C046B6
:100A9000A10A0008470B0008510B00085B0B000877
:100AA000194608390968490559E0029A1078400743
:100AB000444B05D5200319688143D068084318606A
:100AC00018688006400F22D01A6838210A403E4834
:100AD000082A23D01A680A40102A5ED159680322D6
:100AE0000A40032A00D0394859684906490F491C71
:100AF00001F0D0FA334949684904490E4843314965
:100B00004968490F491C01F0C5FA2E4B06E018460A
:100B1000083800688004410F2C48C84019688909CA
:100B20003C220A402A4989581F220A40D0402949BC
:100B3000086029480068FFF7A7FE0146084603B091
:100B4000F0BD596D0AE0194608390968890306E0C5
:100B5000194608390968890101E0996D89070199E9
:100B600000D459E71968A14301431960144FFFF7F6
:100B700069FE064613480068382101400298406823
:100B8000C000814200D15EE7FFF75CFE801BB842E7
:100B9000F0D90321084603B0F0BD186808402028AA
:100BA00002D10120C003B9E718680840182801D015
:100BB0000020B3E77D200002B0E7C04600200240DD
:100BC000881300000810024000093D000024F400D2
:100BD0008C220008400000203C000020F0B587B0C7
:100BE0000125002800D1ECE1049505900078C007AC
:100BF000F94F2AD0B868F96803252A468A43382174
:100C0000014010204840821850425041082914D019
:100C1000002812D105984268012001048A4208D0B8
:100C200005231B049A4200D0DAE082043B68134398
:100C30003B603A680A433A60DBE03868800304D5D9
:100C400005984068002800D173E105980078800776
:100C500023D40598007800070CD5B86838210140E6
:100C6000182971D1386E800704D50598806900284D
:100C700000D15EE1059A1078400700D42EE1B868F3
:100C800038210140202974D1F86D800700D425E176
:100C90009068002800D021E14BE1B9683820084075
:100CA00010214140FA6803252A4002235340CA1804
:100CB00051425141002820D000291ED13868059AA0
:100CC000D168002900D1A2E00721C9028843116937
:100CD00001433960012001023A680A433A60840204
:100CE000FFF7B0FD06463868204200D0A1E0FFF7CC
:100CF000A9FD801B0228F6D963E139684905059BE7
:100D000003D5D968002900D113E17F2109027A684F
:100D10008A43596909021143796000280DD10720DF
:100D2000C002396881431869084338603868800414
:100D3000400FAA49C140AA480160AA480068FFF7CD
:100D4000A3FD002885D0F4E0386E05998969002953
:100D500079D0012108433866FFF774FD0646386EE6
:100D6000800787D4FFF76EFD801B03250228F6D984
:100D700027E1012003900107F86B0840029006D19B
:100D8000F86B0843F863F86B0840069006980191E9
:100D900095480068C00513D4039804029249086876
:100DA00020430860FFF74EFD06468F48006820424A
:100DB00006D1FFF747FD801B03250228F5D900E186
:100DC00005988068894C012805D005285AD1F86D0E
:100DD00004210143F965F86D03990843F8655BE068
:100DE0003B688B433B6081043B688B433B60002A3C
:100DF0003AD04404FFF726FD06463868204200D06A
:100E000023E7FFF71FFD801B6428F6D9D9E00121F5
:100E10000A02904338608C02FFF714FD06463868DA
:100E2000204200D115E7FFF70DFD801B0228F6D9FF
:100E3000C7E07F200002796881430598406900027D
:100E40000843786005E7012188433866FFF7FAFC1C
:100E50000646386E800700D40CE7FFF7F3FC801BD2
:100E600003250228F5D9ACE04404FFF7EBFC064665
:100E70003868204200D1E8E6FFF7E4FC801B6428D4
:100E8000F6D99EE0F96D039A9143F965F96D042254
:100E90009143F96500280CD0FFF7D4FC0646F86DA5
:100EA000800713D4FFF7CEFC801B0325A042F6D9A0
:100EB00087E0FFF7C7FC0646F86D800706D5FFF709
:100EC000C1FC801B0325A042F6D97AE002980028D5
:100ED000059A03D1F86B01998843F863D469002C13
:100EE00076D0B86838210140102926D1012C20D0B5
:100EF000F86803210140059B1A6A914219D17021BB
:100F000001405A6A914214D17F21090201409A6A34
:100F1000120291420DD11F2149040140DA6A914227
:100F2000049D4ED1072149070840196B884248D1DA
:100F30004EE0049D284607B0F0BD0125290638681B
:100F4000049188433860FFF77DFC0646022C0BD1E4
:100F500003956C063868204211D0FFF773FC801BA4
:100F600003250228F6D92CE06C06386820422BD0E5
:100F7000FFF768FC801B03250228F6D921E0F868FA
:100F80001C490140059E20366DCE084310431902CE
:100F9000014329433143F9603868049908433860B4
:100FA00003980007F9680143F960FFF74BFC064618
:100FB000386820420CD1FFF745FC801B032502282E
:100FC000F6D9284607B0F0BDF86809490140F96034
:100FD0000025284607B0F0BD001002400024F400B0
:100FE000400000203C0000200070004088130000FA
:100FF000FCFFFEEF8C80C11F401E010E01D00120BE
:1010000070470749074A5060074803680B400321AF
:10101000890759180160002090600721116070470E
:10102000FFFFFF0010E000E020ED00E07047704798
:101030007047000070B53C22825C012A01D1022079
:1010400070BD02463C3202235370006845688368D5
:10105000684CA04201D02E4604E00F263605B54369
:101060004E682E437025AE430D6835434560A0425F
:1010700002D0614CA04204D18024A3438968194363
:101080008160002010700121517070BDB0B5002842
:1010900024D0044605463C356878002804D1002059
:1010A0002870204600F062F802206870206803680B
:1010B0005049884202D0504A904211D17022934345
:1010C000A2681A43254B98420EDD884212D0244B69
:1010D00098420FD0234B98420CD03CE00120B0BD89
:1010E0001A461E4B9842F0DC434B984202D01E4BEE
:1010F000984230D103231B029A4323691343802271
:101100009343A2691A430260E268C2626268826223
:10111000884205D01249884202D01249884201D142
:101120006169016322463E32443401214161036911
:10113000DB0702D003698B43036121711170517089
:101140009170D1701171517121706170A170E17055
:1011500069700020B0BD1346D1E7C046FF2B0140A7
:1011600000480140004401400020004010B582B01A
:1011700000682149884201D002B010BD09480168C9
:101180000222114301600068104001900198102470
:10119000002120460A46FFF7BBFB2046FFF7ACFBC9
:1011A00002B010BD3C10024010B53D21415C012948
:1011B00018D101463D3102220A700168C868012237
:1011C0001043C8600B48814202D00B4881420BD1CA
:1011D00088680A4B03400020062B02D01404A34267
:1011E00002D110BD012010BD086810430860002026
:1011F00010BDC046002C0140000400400700010063
:1012000010B50268D36801218B43D360136A094C7F
:10121000234203D03D228154002010BD136A064CA6
:101220002342F7D113688B4313603D228154002081
:1012300010BDC0461111000044040000F0B53C226E
:10124000825C012A01D10220F0BD02463C32022319
:1012500053700468A0684E4B0340A3600D680023E0
:101260004F2D1EDC1F2D37DD202D39D0302D37D0EE
:10127000402D00D087E0206A256A0126B54325620B
:10128000A569F026B543CE6836012E43A6610A252E
:10129000A843496801432162A0683E4901404731A3
:1012A0006BE06F2D28DD01204603B54240D00003DE
:1012B000854218461CD0702D65D1FF200002A5681C
:1012C000854348688E68C96806430802304328434E
:1012D000A060A068772139E0002D01D0102D52D1F7
:1012E000A0682C4901400D4307202843A060184600
:1012F000137001215170F0BD502D29D0602D42D1C5
:10130000206A256A1026B54325620F252D03A6699C
:10131000AE43CD682D033543A561A025A843496898
:10132000090101432162A0681A490140673124E0A4
:10133000FF252D02A668AE434D688F68C9682F430C
:10134000090239433143A1608003A168014314E0DD
:10135000206A256A0126B5432562A569F026B543B2
:10136000CE6836012E43A6610A25A8434968014389
:101370002162A068074901405731A16018461370E7
:1013800001215170F0BD0120137001215170F0BD99
:101390008800CEFF88FFCFFF70470000F0B583B014
:1013A00004460068C5680227294639404A424A4136
:1013B0000169029139404B424B41134313D16C49AF
:1013C000FE310161012121778069800703D0204629
:1013D000FFF7E2FF05E0204600F0CEF8204600F0DF
:1013E000CCF80020207701260422294611404842EB
:1013F000484102994907314600D5014603200002C1
:101400000190002916D1009220685949FC310161F0
:10141000277780690199084203D02046FFF7BCFF77
:1014200005E0204600F0A8F8204600F0A6F80020CD
:101430002077009A082729463940484248410299B6
:101440000907314600D50146002913D120684849D3
:10145000F83101612277C069800703D02046FFF789
:101460009BFF05E0204600F087F8204600F085F855
:101470000020207710212940484248410299C9069E
:10148000314600D50146002914D120683849F03191
:1014900001612777C0690199084203D02046FFF710
:1014A0007BFF05E0204600F067F8204600F065F875
:1014B0000020207701212940484248410299C9076C
:1014C000314600D00146002906D120682849FF3165
:1014D0000161204600F052F880272F407842784181
:1014E0004121C901029A0A42314600D00146002931
:1014F00005D120681F4901612046FFF798FD784219
:1015000078410299C905314600D50146002905D127
:101510002068174901612046FFF788FD40212940D6
:101520004842484102994906314600D50146002902
:1015300006D120680E49C0310161204600F026F82E
:1015400020200540684268410299890603D4002E94
:1015500004D003B0F0BD0646002EFAD1206804493D
:10156000E03101612046FFF763FD03B0F0BDC046E6
:10157000FFFEFFFF7FDFFFFF7047704780B5024827
:101580004021FFF74EF980BD000400507047FEE790
:10159000FEE77047704780B5FFF758F9FFF700F88E
:1015A00080BD704780B50248FFF7F8FE80BDC04699
:1015B000D801002070B50120FEF71CFEFEF7E2FD09
:1015C000C1B2CD246143890A05256943401A8A4E78
:1015D0007070FEF7D7FDC1B26143890A6943401AB2
:1015E000B070FEF7CFFDC1B26143890A6943401A6A
:1015F000F070FEF7C7FDC1B26143890A6943401A22
:101600003071FEF7BFFDC1B26143890A6943401AD8
:101610007071FEF7B7FDC1B26143890A6943401A90
:10162000B071FEF7AFFDC1B26143890A6943401A48
:10163000F071FEF7A7FDC1B26143890A6943401A00
:101640003072FEF79FFDC1B26143890A6943401AB7
:101650007072FEF797FDC1B26143890A6943401A6F
:10166000B072FEF78FFDC1B26143890A6943401A27
:10167000F072FEF787FDC1B26143890A6943401ADF
:101680003073FEF77FFDC1B26143890A6943401A96
:101690007073FEF777FDC1B26143890A6943401A4E
:1016A000B073FEF76FFDC1B26143890A6943401A06
:1016B000F073FEF767FDC1B26143890A6943401ABE
:1016C0003074FEF75FFDC1B26143890A6943401A75
:1016D0007074FEF757FDC1B26143890A6943401A2D
:1016E000B074FEF74FFDC1B26143890A6943401AE5
:1016F000F074FEF747FDC1B26143890A6943401A9D
:101700003075FEF73FFDC1B26143890A6943401A53
:101710007075FEF737FDC1B26143890A6943401A0B
:10172000B075FEF72FFDC1B26143890A6943401AC3
:10173000F075FEF727FDC1B26143890A6943401A7B
:101740003076FEF71FFDC1B26143890A6943401A32
:101750007076FEF717FDC1B26143890A6943401AEA
:10176000B076FEF70FFDC1B26143890A6943401AA2
:10177000F076FEF707FDC1B26143890A6943401A5A
:101780003077FEF7FFFCC1B26143890A6943401A12
:101790007077FEF7F7FCC1B26143890A6943401ACA
:1017A000B077FEF7EFFCC1B26143890A6943401A82
:1017B000F077FEF7E7FCC1B26143890A6943401A3A
:1017C000711CC877FEF7DEFCC1B26143890A694328
:1017D000401A1F36B070FEF7D5FCC1B26143890ACA
:1017E0006943401AF070FEF7CDFCC1B26143890A2B
:1017F0006943401A307170BDB4010020F0B58BB060
:101800008F20000109900520009000070290002021
:101810000A9003460193FF270A9803904AE00122A9
:101820000792029C20460999FFF703F8DD4E706A83
:101830007D494988C162316324363046FFF7B4FCE4
:101840004B200890FEF708FF3046FFF7D9FC4021F7
:1018500006910027D2483A46FEF7EBFF2046099949
:101860003A46FEF7E6FF0898FEF7F6FE204609998D
:10187000079AFEF7DEFFCB4A506A6B494988C1627E
:1018800011633046FFF790FC089C2046FEF7E4FE0B
:101890003046FFF7B5FCC24806993A46FEF7C9FF45
:1018A0000298099903973A46FEF7C3FF2046FEF7D0
:1018B000D3FE2F46FEF766FE03240A982146FEF764
:1018C000EDFC054601202146FEF7E8FC411E4E4294
:1018D0004E41012D0790089500D1761C022528461F
:1018E0002146FEF7DBFC01280497059000D1761C09
:1018F00020462146FEF7D2FC07460128069500D176
:10190000761C042528462146FEF7C8FC012800D194
:10191000761C079A059B089901290A992FD1012A5B
:1019200030D0012B31D1012F32D1012833D1F4B283
:10193000FEF72EFE022C00D371E7012C32D1E80015
:10194000F54C2018818A006901220392FEF771FF8D
:10195000680020184088EF4A516AC8621063104638
:101960002430FFF721FCFEF70DFEE8B20321FEF75D
:1019700095FC0128F7D0FEF70BFE2F469AE7049955
:10198000012ACED11146012BCDD00691012FCCD00A
:10199000069C0128CBD02546F4B2FEF7F9FD022CB7
:1019A000CBD33CE70398C0072F460A98039081D019
:1019B000E800D9490818818A006900242246FEF708
:1019C00038FFD44E30462430FFF71AFC4021D3486C
:1019D0002246FEF72EFF3078009941437218019B92
:1019E000D9B252185278954208D1042910D05B1C04
:1019F000D8B2052800D20DE70BB0F0BDC548047081
:101A00007D20C000C449088000F0BEFA0BB0F0BDD4
:101A1000401CC0490870C04908886438088000F03C
:101A2000C5F80BB0F0BDC0460000002094B0FEF732
:101A300017FF00240D940C940B940A9409940894B5
:101A400001277802FEF780FF780713907804129040
:101A500008201190109402260F960E9640250C95A2
:101A60000B9438020A90079607A8FFF7B7F80028EA
:101A700003D0EFF3108072B6FEE7069405940720BA
:101A80000390049603A83146FEF7A4FF002803D074
:101A9000EFF3108072B6FEE70B940A943F4801689A
:101AA0003143016001683140039103990168394372
:101AB00001600068384003900398052000070290F9
:101AC0008F21090101912246FEF7B3FE9348294672
:101AD0002246FEF7AEFE099708948020079007AED5
:101AE0008E483146FEF7C8FD099708940F200790ED
:101AF00002983146FEF7C0FD0A94099408970198B0
:101B0000079002983146FEF7B7FD0A9409940897AA
:101B1000079582483146FEF7AFFD7E4EF463C7203D
:101B20003F21214A7262B162F462306374630A94A5
:101B3000099408940494354624352846FFF7A6FAFC
:101B4000002803D0EFF3108072B6FEE73803079049
:101B500007A92846FFF772FB002803D0EFF3108097
:101B600072B6FEE70594039403A92846FFF762FACC
:101B7000002803D0EFF3108072B6FEE7FEF730FCCA
:101B8000FFF718FD3078072807D20628FDD800F0A7
:101B9000C7F8FFF733FE3078F7E7FEE7341002406E
:101BA00000040050B401002000040040F0B583B0F0
:101BB000F34A506AF34CA189C16211631046243084
:101BC0000290FFF7F1FA2069A18A01252A46FEF763
:101BD00030FEA18E206B2A46FEF72BFE8C2738465E
:101BE000FEF73AFDA18A206900263246FEF721FE63
:101BF000A18E206B3246FEF71CFEA18BA0692A46FF
:101C0000FEF717FEA18DA06A2A46FEF712FE38469F
:101C1000FEF722FDA18BA0693246FEF70AFEA18DD8
:101C2000A06A3246FEF705FEA18C206A2A46FEF71E
:101C300000FEA18C206A2A46FEF7FBFD3846FEF71F
:101C40000BFDA18C206A3246FEF7F3FDA18C206AC1
:101C50003246FEF7EEFDA18DA06A2A46FEF7E9FDA9
:101C6000A18BA0692A46FEF7E4FD3846FEF7F4FC96
:101C7000A18DA06A3246FEF7DCFDA18BA069324639
:101C8000FEF7D7FDA18E206B2A46FEF7D2FDA18A72
:101C900020692A46FEF7CDFD3846FEF7DDFCA18E11
:101CA000206B3246FEF7C5FDA18A20693246FEF759
:101CB000C0FD029F3846FFF7A3FAF5484021019185
:101CC0003246FEF7B6FDF04A506AE189C1621163FF
:101CD0003846FFF769FA052004078F2007012046E0
:101CE00039462A46FEF7A5FD6420FEF7B5FC2046DE
:101CF00039463246FEF79DFD0298FFF781FAE44827
:101D000001993246FEF795FD7D20C000FEF7A4FC48
:101D100003B0F0BDB401002000000020000400501A
:101D2000F0B587B0D84E3078052460430694711C16
:101D3000085C0D46C100D54F10377858791889884E
:101D400001220592FEF775FD30786043285C400063
:101D5000CE4A911C0491085A716AC8623063148893
:101D6000243630460296FFF71FFA2046FEF774FC31
:101D70003046FFF745FAC648402103910026324617
:101D80000196FEF756FDC0480078069C6043285C2B
:101D9000C1007858791889883246FEF74AFDBB4859
:101DA0000088FEF759FCB84800786043264628189A
:101DB0002C464078C100785879188988059AFEF732
:101DC00038FDB14A107870432818407840000499D3
:101DD000085A516AC8621063AC480688029D2846BA
:101DE000FFF7E2F93046FEF737FC2846FFF708FA1E
:101DF000A7480399019D2A46FEF71BFDA2480078DB
:101E0000069E704320184078C10078587918898858
:101E10002A46FEF70EFD9D480088FEF71DFC9A48F5
:101E20000078704320188078C10078587918898824
:101E3000059AFEF7FEFC944A1078704320188078CB
:101E400040000499085A516AC86210638F48068896
:101E5000029D2846FFF7A8F93046FEF7FDFB28460D
:101E6000FFF7CEF98A480399019E3246FEF7E1FC5E
:101E700085480078069D684320188078C10078580E
:101E8000791889883246FEF7D4FC80480088FEF72E
:101E9000E3FB7D4E307868432018C078C100785845
:101EA00079188988059AFEF7C4FC307868432018B1
:101EB000C07840000499085A716AC8623063734858
:101EC0000688029D2846FFF76FF93046FEF7C4FBEF
:101ED0002846FFF795F96E480399019E3246FEF7B2
:101EE000A8FC69480078069D68432018C078C100A6
:101EF0007858791889883246FEF79BFC6348008839
:101F0000FEF7AAFB60480078684320180079C100FA
:101F1000785879188988059AFEF78BFC5A4A107808
:101F2000684320182546007940000499085A516AF0
:101F3000C862106355480688029C2046FFF734F9B2
:101F40003046FEF789FB2046FFF75AF950480399BF
:101F5000019E3246FEF76DFC4B48007806994843D7
:101F600028180079C1007858791889883246FEF718
:101F700060FC46480088FEF76FFB07B0F0BDC04626
:101F8000B401002000000020F0B587B0052005074F
:101F90008F210C010122069228462146FEF749FCBA
:101FA000394F786A39498989C1623963243738469B
:101FB000FFF7FAF87D20019080000290FEF74CFBBD
:101FC0003846FFF71DF93248402105910026324678
:101FD0000496FEF72EFC0395284621463246FEF76E
:101FE00028FC029E3046FEF737FB28462546214650
:101FF000069AFEF71EFC244A506A24498989C16268
:1020000011633846FFF7D0F83046FEF725FB384617
:10201000FFF7F6F81E480599049C2246FEF709FCD6
:10202000039E304629462246FEF703FC029C2046CA
:10203000FEF712FB30462946069AFEF7FAFB124AD3
:10204000506A12498989C16211633846FFF7ACF8BA
:1020500026462046FEF700FB3846FFF7D1F80C482D
:102060000599049C2246FEF7E4FB03982946224684
:10207000FEF7DFFB3046FEF7EFFA0198C000FEF7EF
:10208000EBFA07B0F0BDC046B4010020000000200C
:102090000004005043088B421AD3002203098B42EC
:1020A00079D3030A8B425ED3030B8B4242D3030CDA
:1020B0008B4227D30902FF2212BA030C8B4202D3B0
:1020C0001212090203D0030B8B4233D31AE0D3E080
:1020D000411A8041401C704703460B4371D44308AA
:1020E0008B42F5D3002203098B4254D3030A8B425F
:1020F00039D3030B8B421DD3030C8B4202D394467E
:102100006EE0090AC30B8B4201D3CB03C01A5241C4
:10211000830B8B4201D38B03C01A5241430B8B427A
:1021200001D34B03C01A5241030B8B4201D30B0363
:10213000C01A5241C30A8B4201D3CB02C01A52418A
:10214000830A8B4201D38B02C01A5241430A8B424D
:1021500001D34B02C01A5241030A8B4201D30B0236
:10216000C01A5241CDD2C3098B4201D3CB01C01A50
:10217000524183098B4201D38B01C01A524143095A
:102180008B4201D34B01C01A524103098B4201D348
:102190000B01C01A5241C3088B4201D3CB00C01AB5
:1021A000524183088B4201D38B00C01A524143082D
:1021B0008B4201D34B00C01A5241411A52411000C8
:1021C0007047CA0F00D04942031000D34042534029
:1021D00000229C4603098B422DD3030A8B4212D363
:1021E0008901FC2212BA030A8B420CD38901921195
:1021F0008B4208D3890192118B4204D3890137D0D5
:10220000921100E08909C3098B4201D3CB01C01AA6
:10221000524183098B4201D38B01C01A52414309B9
:102220008B4201D34B01C01A524103098B4201D3A7
:102230000B01C01A5241C3088B4201D3CB00C01A14
:10224000524183088B4201D38B00C01A5241D9D22C
:1022500043088B4201D34B00C01A5241411A00D2AD
:1022600001465241104663465B1000D3404270471E
:1022700063465B1000D3404201B50021004201D00B
:10228000C9430846C046C04602BD00000000000029
:10229000000000000000000000000000000000003E
:1022A000000000000000000000000000010000002D
:1022B000020000000300000004000000060000000F
:1022C000070000000800000009000000F0220008DC
:1022D00000000020480000001C010008382300080E
:1022E00048000020E00700003C010008000000005A
:1022F000E8037807ED05FD04F503BC03C410BF0136
:1023000000000050000800000000005080000000A5
:1023100000000050400000000000005020000000BD
:102320000000005010000000010000000400000048
:082330000024F400000000008D
:04000005080000C12E
:00000001FF
