:020000040800F2
:100000001007002061020008091800080118000804
:10001000051800080D040008C919000800000000B8
:10002000000000000000000000000000111800089F
:1000300011040008000000000D1800081518000841
:100040007B0200087B0200087B0200087B0200089C
:100050007B0200087B0200087B0200087B0200088C
:100060007B0200087B0200087B0200087B0200087C
:100070007B0200087B0200087B0200087B0200086C
:100080007B0200087B0200087B02000800000000E1
:100090000000000000000000000000007B020008DB
:1000A0007B0200087B0200087B0200087B0200083C
:1000B0007B0200087B0200087B0200087B0200082C
:1000C0007B0200087B0200087B0200087B0200081C
:1000D0007B0200087B0200087B0200080000000091
:1000E0007B0200087B0200087B0200080000000081
:1000F0000000000000000000000000007B0200087B
:10010000000000007B0200087B0200087B02000860
:1001100000000000000000000000000000000000DF
:100120007B0200087B0200087B0200087B020008BB
:100130007B0200080000000000000000000000003A
:100140000000000000000000000000007B0200082A
:100150007B0200087B0200087B0200087B0200088B
:100160007B0200087B020008000000000000000085
:10017000000000000000000000000000000000007F
:10018000000000007B0200080000000000000000EA
:100190007B02000800F002F800F052F814A696E87E
:1001A000000CB244B344DA4501D100F049F8BAE892
:1001B0000F000FA696E83000A5EB040504EB060738
:1001C000AAEB0704A7F101074FEA15154FEA34140B
:1001D000A4F10104AC4201D300F032F813F0010F96
:1001E00018BFFB1A43F0010300F001F8DBE71847E2
:1001F0001C1E00003C1E0000103A24BF78C878C1C5
:10020000FAD8520724BF30C830C144BF04680C601C
:1002100070470000704700000023002400250026DE
:10022000103A28BF78C1FBD8520728BF30C148BF59
:100230000B6070471FB501F0CFFE1FBD10B510BD9C
:1002400000F0A9F81146FFF7F5FF01F0C1FB00F03F
:10025000C7F803B4FFF7F2FF03BC00F0CFF80000CB
:100260000948804709480047FEE7FEE7FEE7FEE74A
:10027000FEE7FEE7FEE7FEE7FEE7FEE70448054986
:10028000054A064B70470000C51800089501000894
:100290001001002010070020100300201003002090
:1002A00053EA020C00F069802DE9F04B4FF0000694
:1002B000002B1FBFB3FA83F503FA05F424FA05F601
:1002C0005E4012BF1643B2FA82F502FA05F4C5F198
:1002D00020051EBF22FA05FC44EA0C04203556EA2C
:1002E000044C4FEA144418BF641C4FF000084FF050
:1002F0000009904271EB030C39D3002919BFB1FA00
:1003000081F701FA07F6B0FA80F700FA07F6C7F1AD
:1003100020071EBF20FA07FC46EA0C062037B6FB72
:10032000F4FCA7EB0507103F07F01F0BCBF12006ED
:100330002CFA06F60CFA0BFB44BFB3460026202F1E
:10034000A4BF5E464FF0000B5BEA060C08BF4FF0FF
:10035000010B19EB0B0948EB0608ABFB027C06FB13
:1003600002CC0BFB03CCC01B71EB0C01C1E70B46AD
:10037000024641464846BDE8F08B13B5084318BF16
:100380004FF0FF300146AFF30080BDE81C407047DE
:10039000704770477047754600F02CF8AE46050070
:1003A0006946534620F00700854618B020B5FFF790
:1003B00065FFBDE820404FF000064FF000074FF00A
:1003C00000084FF0000BAC46ACE8C009ACE8C0092F
:1003D000ACE8C009ACE8C00921F007018D467047C0
:1003E00010B50446AFF300802046BDE81040FFF78B
:1003F00030BF00000048704710000020014918205D
:10040000ABBEFEE72600020070470000FEE70000DA
:10041000704700002DE9F04F82B000F13E4707F130
:10042000FF77860546EA972741F20006C4F20206E6
:10043000072243F6004EB04208BF0422C4F2010E68
:10044000042F38BF3A46002600274FF000080092DC
:1004500009E000BF08F101080237B8F1100F06F1FA
:10046000040600F0A3800D68012202FA08F415EAE0
:100470000409EFD0D1F804B003220BF0030CACF167
:100480000105BA40012D6FEA020A0FD88268CD68D3
:1004900002EA0A02BD402A4382604268A243CBF3CB
:1004A000001404FA08F42243426005E0BCF1030F93
:1004B00002D14FF0030C1EE0C2688C6802EA0A0207
:1004C000BC402243BCF1020FC26014D16FF00302A2
:1004D00002EA58020244D2F820C006F01C040F239E
:1004E0000D69A3402CEA0303A5402B431362D1F806
:1004F00004B00BF0030C02680CFA07F302EA0A02DC
:100500001A431BF4403F0260A4D0002243F6440388
:100510000192C4F202031A684FF6084C42F480427A
:100520001A601A68CFF6FF7C02F480420192019AA9
:1005300028F00302724452F80C3006F00C050F2428
:10054000AC40A343009C04FA05F52B4342F80C3061
:10055000DEF808204B6842EA090543F60C4CDC0241
:1005600058BF22EA0905CEF80850C4F2010CDCF8A5
:1005700000209C0242EA090558BF22EA0905CCF88E
:100580000050DEF804209C0342EA090558BF22EA25
:100590000905CEF80450DEF80020DB0342EA090525
:1005A00058BF22EA0905CEF8005053E702B0BDE873
:1005B000F08F000040F20810C2F20000006870479F
:1005C00040F2000040F20811C2F20000C2F2000145
:1005D00000780A68104408607047000080B543F650
:1005E0000040C4F20200016841F40071016001683A
:1005F00041F480610160016841F480710160032071
:1006000000F074F80F2000F005F800F027F8002043
:1006100080BD000070B540F20006C2F2000640F254
:1006200008013278C2F200014FF47A730968B3FB13
:10063000F2F20446B1FBF2F1084600F04FFB0F2C3A
:100640004FF0010508D838B94FF0FF30214600229D
:10065000002500F01FF87460284670BD82B00020AD
:1006600043F640010190C4F202014A6842F480421C
:100670004A604A6802F480420192019A0090086838
:1006800040F080500860086800F0805000900098AA
:1006900002B0704710B54EF60C5CCEF2000CDCF8E0
:1006A0000030C3F3022E8EF00704042C28BF04246C
:1006B000BEF103034FF0FF3E0EFA04F438BF0023EF
:1006C000A14399400EFA03F39A43114300F00F023D
:1006D00000F160430901043A03F5644362440028D1
:1006E00048BF02F10C03197010BD00004EF60C510A
:1006F000CEF200010A684FF6FF031A4060F30A22A7
:1007000042F0806040F0FD7008607047002804BF30
:10071000012070472DE9F04143F60808C4F20208B1
:100720000446D8F8F8030D4600F00700884207D2C7
:1007300088F8F853D8F8F80300F00700A84277D1FA
:100740002068810717D5410705D5D8F8001041F476
:10075000E051C8F80010010705D5D8F8001041F4A1
:100760006041C8F80010D8F80010A26821F0F0012C
:100770001143C8F80010C00740D1D8F8F80300F0C2
:100780000700A84207D988F8F853D8F8F80300F012
:100790000700A8424CD12068410707D5D8F80010BF
:1007A000E26821F4E0511143C8F80010000708D5B1
:1007B000D8F80000216920F4604040EAC100C8F880
:1007C000000000F07DF8D8F8001041F6F272C1F395
:1007D0000311C0F60002515C40F2080220FA01F158
:1007E00040F20400C2F200000068C2F20002116090
:1007F000FFF710FF0020BDE8F08100BF6068811E98
:10080000022907D258F8081C89015CBF0120BDE805
:10081000F08111E0012807D158F8081C89035CBF5A
:100820000120BDE8F08107E058F8081C890703D4CF
:100830000120BDE8F08100BFD8F8001021F00301CD
:100840000843C8F80000FFF7B5FE064641F28837B6
:10085000D8F80000616800F00C00B0EB810F8CD07C
:10086000FFF7A8FE801BB842F2D90320BDE8F08153
:1008700040F2080043F60801C2F20000C4F202018F
:100880000068096842F20202C1F38221C0F6000248
:10089000515CC8407047000040F2080043F6080170
:1008A000C2F20000C4F202010068096842F20202CA
:1008B000C1F34231C0F60002515CC84070470000ED
:1008C00010B543F60404C4F20204606800F00C00A2
:1008D00008280BD0042819BF42F20040C0F2F400EF
:1008E00047F64000C0F27D1010BD00BF20682168AF
:1008F0002368490247F64001C0F27D1100F03F0233
:10090000C3F388105CBF42F20041C0F2F401A1FBC6
:1009100000010023FFF7C4FC21680222C1F301415A
:1009200002EB4101B0FBF1F010BD0000002804BF54
:10093000012070472DE9F04182B00446007843F66B
:100940000006C007C4F202060CD0B06800F00C002C
:10095000042840F081803068800303D56068002857
:1009600000F06A81207880071BD5B06810F00C0F6A
:1009700009D0B06800F00C00082840F0878070684B
:10098000400200F183803068800703D5E0680128C9
:1009900040F052813068216920F0F80040EAC1003F
:1009A00030602078000713D4207840072AD4A56946
:1009B000002D00F03C81B06800F00C00082840F0E9
:1009C000A180012D40F01081012002B0BDE8F0812E
:1009D0006069002840F20000C4F2472000F07E80E9
:1009E0000121C0F8801EFFF7E5FD0546706F800706
:1009F000DAD4FFF7DFFD401B0228F7D9032002B04D
:100A0000BDE8F081306C5FEAC0080AD40020019094
:100A1000306C40F080503064306C00F080500190B9
:100A2000019847F20007C4F200073868C00547D4B0
:100A3000386840F480703860FFF7BCFD054600BFA1
:100A40003868C0053CD4FFF7B5FD401B0228F7D934
:100A5000032002B0BDE8F081B06800F00C00082867
:100A600003D1706840023FF576AF6068B0F5803F13
:100A700007D0B0F5A02F40F09B80306840F4802074
:100A80003060306840F4803030609BE0E0680028DF
:100A90005CD00020C4F2472001210160FFF78AFDED
:100AA000054600BF306880073FF574AFFFF782FD51
:100AB000401B0228F6D9032002B0BDE8F08100BF38
:100AC000A068012805D0052854D1306F40F00400FB
:100AD0003067306F40F00100306755E00021C0F80A
:100AE000801EFFF767FD0546706F80077FF55CAFDE
:100AF000FFF760FD401B0228F6D9032002B0BDE8D5
:100B0000F08100BF0027C4F2472700203866FFF7B6
:100B100051FD022D05460DD13068800140F19080D5
:100B2000FFF748FD401B02284FF00300F4D902B044
:100B3000BDE8F0813068800179D5FFF73BFD401BAF
:100B400002284FF00300F5D9F1E700BF0020C4F2FE
:100B5000472000210160FFF72DFD05463068800722
:100B60007FF51FAFFFF726FD401B02284FF0030063
:100B7000F4D9DCE7316F002821F001013167316FD2
:100B800021F0040131677DD0FFF714FD054641F2E5
:100B9000883700BF306F800700F18680FFF70AFDBD
:100BA000401BB842F6D9032002B0BDE8F08100BF77
:100BB0003168002821F480313160316821F48021CE
:100BC00031607BD0FFF7F6FC054600BF306880033C
:100BD0003FF5C8AEFFF7EEFC401B6428F6D90320B2
:100BE00002B0BDE8F08100BF7068E16900F48002E6
:100BF0008A4221D1216A00F03F028A421CD147F685
:100C0000C071626A0140B1EB821F15D1A16A4FF633
:100C1000FF73C903994300F44032A1F580318A4241
:100C20000AD1E16A00F07060B0EB016F04D10020DE
:100C300002B0BDE8F08100BF012002B0BDE8F08144
:100C400004F11C052FCD084340EA8210D9034FF66A
:100C5000FF729143A1F5803140EA0560084370605E
:100C600001203866FFF7A6FC044600BF306880010B
:100C7000DDD4FFF79FFC001B02284FF00300F5D9DD
:100C800055E700BFFFF796FC054641F2883700BFE5
:100C9000306F800708D5FFF78DFC401BB8424FF03E
:100CA0000300F5D943E700BFB8F1000F3FF57FAE71
:100CB000306C20F08050306479E600BFFFF77AFC9A
:100CC000054600BF306880037FF54CAEFFF772FC2D
:100CD000401B64284FF00300F4D928E7411E002090
:100CE000B0EB116F1CBF012070474EF21002CEF224
:100CF000000251604EF62351CEF20001F0230B703A
:100D0000072190601160704790F83C20012A04BFD1
:100D100002207047B0B501F108053CCDD1E900CE05
:100D200023F47C5322F470521A432EF4F0431A43F6
:100D30002CF4E0431A4324F4C0431A432A43C969FC
:100D400022F48042036811435964002180F83C106A
:100D5000BDE8B0400846704790F83C20012A4FF0AB
:100D6000020241D010B580F83D200268D2F804E0BC
:100D7000D2F808C00C682EF07003234340F6FF340D
:100D8000C4F20004A242536010DCB2F1804F1ED0C6
:100D900040F20043C4F200039A4218D040F6000328
:100DA000C4F200039A4212D016E000BF40F600439E
:100DB000C4F200039A420AD044F20003C4F20103D1
:100DC0009A4204D00023C4F201039A4204D1496834
:100DD0002CF08003194391600121002280F83D101E
:100DE00080F83C20BDE8104010467047002804BF42
:100DF0000120704710B5044690F83D0028B9002046
:100E000084F83C00204600F08FF8022084F83D0072
:100E1000206840F2FF730268C4F2000340F2000C45
:100E20009842C4F2010C1DDD40F60001C4F200013D
:100E3000884220D060451ED040F60041C4F2000137
:100E4000884218D04FF6FF71C4F2000188421CDCC2
:100E5000984225DCB0F1804F3AD040F20041C4F214
:100E6000000133E0B0F1804F05D040F20041C4F200
:100E700000018842E6D1A16822F070020A434FF6D1
:100E8000FF71C4F200018842E2DD44F2FF31C4F296
:100E90000101884210DC60451AD044F2000113E0E1
:100EA00040F60001C4F20001884211D040F6004132
:100EB000C4F200010AE000BF44F60001C4F20101DF
:100EC000884205D044F20041C4F20101884203D1B6
:100ED000216922F440720A43A36922F08001D4F808
:100EE00004E0E268194360450160C262C0F828E08E
:100EF00002D16169CCF8301001214161002084F8F1
:100F0000461084F83E1084F83F1084F8401084F8AE
:100F1000411084F8421084F8431084F8441084F897
:100F2000451084F83D1010BD00680021C4F2010195
:100F3000884218BF704781B00020009043F64400FB
:100F4000C4F20200016841F001010160006800F094
:100F500001000090009801B07047000090F83C201C
:100F6000012A4FF0020200F0C58080B580F83D20D4
:100F7000D0F800C04FF67772DCF8083023EA02029E
:100F8000CCF808200B684F2B28DC1F2B44DD202BCE
:100F900045D0302B43D0402B40F0AE80D1F804E058
:100FA000C968DCF82030DCF8202022F00102CCF8FF
:100FB0002020DCF8182022F0F00242EA011123F090
:100FC0000A0242EA0E02CCF81810CCF82020DCF815
:100FD000081041F0470121F0300180E06F2B27DD40
:100FE000B3F5005F48D0B3F5805F7AD0702B40F046
:100FF0008380D1E901E3C968DCF8082043EA0E03E5
:1010000022F47F4243EA01211143CCF80810DCF8B6
:10101000081041F0770162E00BB1102B6CD1DCF8C5
:10102000081021F07001194341F0070157E000BF9B
:10103000502B35D0602B5FD1D1F804E0C968DCF8C3
:10104000203023F01003CCF82030DCF81830DCF826
:10105000202023F4704322F0A00243EA013142EA47
:101060000E12CCF81810CCF82020DCF8081041F053
:10107000670121F0100132E0D1E901E3C968DCF831
:10108000082043EA0E0322F47F4243EA0121114380
:10109000CCF80810DCF8081041F480411FE000BFD4
:1010A000D1F804E0C968DCF82030DCF8202022F018
:1010B0000102CCF82020DCF8182022F0F00242EAED
:1010C000011123F00A0242EA0E02CCF81810CCF803
:1010D0002020DCF8081041F0570121F02001CCF865
:1010E00008100022012180F83D10002180F83C10FA
:1010F000BDE88040104670470122F3E701680020F8
:10110000C4F20100814218BF704780B586B000214B
:1011100043F630020191C4F20202136800F58030F8
:1011200043F001031360126802F001020192019A78
:101130004FF4106201920222CDE9022104910121B3
:10114000059101A9FFF766F906B0BDE88040704738
:1011500090F83C30012B04BF022070474FEAB202E6
:10116000032A3BD82DE9F043DFE802F0023E7AB4CF
:10117000036800261A6AC4F2010622F001021A620C
:101180001D6A1A465C6852F818CFB3428E68D1F8CF
:1011900000E025F0020545EA06050CD1CE68D1E94C
:1011A000057824F4407425F00C0526F004063C4331
:1011B000354344EA08042CF0730747EA0E075C60E5
:1011C0009F614F6809695F631D629F6947F0080767
:1011D0009F619F6927F004079F61AAE00121002217
:1011E00080F83C2008467047036800261A6AC4F25B
:1011F000010622F010021A621D6A1A46D3F804C0D2
:1012000052F8184FB3428E68D1F800E025F020055F
:1012100045EA06150FD1CE68D1E905986FF0400771
:1012200025F0C00507EA061635432CF4406748EA66
:10123000090647EA860C24F4E64444EA0E27C3F87C
:1012400004C09F614F6809699F631D629F6947F4ED
:1012500000679F619F6927F480679F6168E000BF16
:10126000036800261A6AC4F2010622F480721A6228
:101270001D6A1A46D3F804C052F81CEFB3428E68B8
:101280000C6825F4007545EA06250FD1CE68D1E932
:101290000598360240F2FF4725F44065BE433543CA
:1012A0002CF4405748EA090647EA061C2EF073075B
:1012B0002743C3F804C0DF614F680969DF631D621B
:1012C000DF6947F00807DF61DF6927F00407DF61A6
:1012D0002FE000BF036800271A6AC4F2010722F456
:1012E00080521A621A46D3F820C05D6852F81C4F2B
:1012F000D1F800E08E68BB4204D14F6925F48045E7
:1013000045EA87152CF4005747EA063724F4E646E9
:1013100046EA0E265D60DE614E6809691E641F6242
:10132000DF6947F40067DF61DF6927F48067DF6109
:1013300009021368194311600021BDE8F04300223F
:1013400080F83C2008467047002804BF0120704701
:1013500010B5044690F83D0028B9002084F83C0000
:10136000204600F08FF8022084F83D00206840F20B
:10137000FF730268C4F2000340F2000C9842C4F20A
:10138000010C1DDD40F60001C4F20001884220D0AE
:1013900060451ED040F60041C4F20001884218D0DA
:1013A0004FF6FF71C4F2000188421CDC984225DC34
:1013B000B0F1804F3AD040F20041C4F2000133E076
:1013C000B0F1804F05D040F20041C4F200018842E4
:1013D000E6D1A16822F070020A434FF6FF71C4F211
:1013E00000018842E2DD44F2FF31C4F2010188428B
:1013F00010DC60451AD044F2000113E040F6000111
:10140000C4F20001884211D040F60041C4F200014C
:101410000AE000BF44F60001C4F20101884205D091
:1014200044F20041C4F20101884203D1216922F44F
:1014300040720A43A36922F08001D4F804E0E26814
:10144000194360450160C262C0F828E002D16169B9
:10145000CCF8301001214161002084F8461084F856
:101460003E1084F83F1084F8401084F8411084F84E
:10147000421084F8431084F8441084F8451084F82E
:101480003D1010BD7047000041B1082910D004295B
:1014900014BF00F1410200F13F020BE090F83E2042
:1014A000012A1CBF01207047022280F83E2013E071
:1014B00000F140021278012A1CBF0120704702226D
:1014C000082907D0042914BF80F8412080F83F2064
:1014D00002E000BF80F84020006801F01F010122F7
:1014E000036A8A4023EA02010162036A4421C4F2CA
:1014F00001011A43A1F144039842026216D040F65A
:10150000FF31C4F2000188421ADCB0F1804F28D0CC
:1015100040F20041C4F20001884222D040F60001AE
:10152000C4F2000188421CD020E000BF0A6842F4E7
:1015300000420A6040F6FF31C4F200018842E4DD57
:1015400040F60041C4F2000188420AD044F2000192
:10155000C4F20101884204D00021C4F20101884292
:1015600004D1816801F00701062903D0016841F028
:101570000101016000207047002804BF012070476E
:1015800010B5044690F83D0028B9002084F83C00CE
:10159000204600F021F8242084F83D002068C1682E
:1015A00021F40051C160204600F096F920680169DD
:1015B00021F490410161416921F02A014161C16832
:1015C00041F40051C16000202021206484F83D10C6
:1015D00084F83E1010BD0000016841F20000C4F222
:1015E0000100814218BF704780B586B0002143F6E4
:1015F00030020191C4F20202536900F5704043F0D9
:1016000010035361536903F010030193019B01918F
:10161000136843F001031360126802F001020192A3
:10162000019A4FF4C06201920222CDE90221032106
:1016300004910721059101A9FEF7ECFE06B0BDE873
:10164000804070472DE9F04381B0044690F83E0099
:1016500020280DD10E4600294FF0010000F0CC806B
:101660001746002A00F0C88094F83C00012803D1F6
:10167000022001B0BDE8F083012084F83C00002086
:1016800022211D46206484F83E102063FEF792FF5D
:10169000A785E785A1680746B1F5805F01D120697C
:1016A00010B1B046002601E04FF00008002084F899
:1016B0003C00E08D002800F09B8005F101090DE061
:1016C00040684FF000086FF35F2026F8020BE08DB2
:1016D0000138E085E08D002800F08A8020680168EC
:1016E00089060DD4B9F1000F18D04DB3FEF762FF93
:1016F000C01BA84224D8206801688906F6D500BF1F
:10170000B8F1000FDCD0A168B1F5805F14D009B941
:10171000216989B1406800F07F000EE00168890608
:10172000EED4016889065CBF01685FEA8161E7D495
:1017300001688906F2D5E3E7406808F8010BC6E7BF
:10174000206850E8030F216820F4D07041E80302BC
:10175000E2B1206850E8030F216820F4D07041E81E
:1017600003029AB1206850E8030F216820F4D0707A
:1017700041E8030252B1206850E8030F216820F4C9
:10178000D07041E80302002ADAD100BF206850E897
:10179000050F216820F0010041E80502DAB1206858
:1017A00050E8050F216820F0010041E8050292B1E0
:1017B000206850E8050F216820F0010041E805028B
:1017C0004AB1206850E8050F216820F0010041E887
:1017D0000502002ADAD1202084F83D0084F83E007A
:1017E000002084F83C00032001B0BDE8F08300BF76
:1017F000202084F83E00002001B0BDE8F083000006
:10180000FEE70000FEE70000FEE700007047000072
:1018100070470000FEF7D4BEB0B592B0002443F686
:101820004000CDE90A44CDE908440594CDE90344DC
:10183000CDE901440094C4F202000168022541F0A0
:1018400080510160006800F080500090009847F2DD
:1018500000000094C4F20000016865F38F3101605C
:10186000006800F4404000900098012006904FF47A
:10187000803007904FF480000D9019200E90A82022
:10188000CDE90F050420119006A80C95FFF74EF83E
:1018900020B1EFF3108072B6FEE700BF0F20CDE954
:1018A00001054FF48050CDE9040401A802210394FE
:1018B000FEF72CFF20B1EFF3108072B6FEE700BFF9
:1018C00012B0B0BD4EF68850CEF20000016841F46F
:1018D000700101607047000010B504460068D4E94B
:1018E00002C22369016921F4405111430161626917
:1018F00043EA0C01E3691143C268194349F20C63DE
:101900009A431143C1604169A26921F4407141F2D7
:101910000043114340F48062C4F201039A424161E2
:1019200002D1FEF7B9FF01E0FEF7A2FFE1696368AB
:101930001922B1F5004FA0FB020123D15A00DB0FA1
:10194000FEF7AEFC48F21F51C5F2EB11A0FB0123DC
:101950005A094FF69C73C0F6FF7303F1805302FBE4
:101960000300322303EBC000A0FB01014FF4F87029
:1019700000EA111000EB0210C1F342110844216883
:10198000886010BD9A009B0FFEF78AFC48F21F5139
:10199000C5F2EB11A0FB01235A094FF69C73C0F668
:1019A000FF7302FB0300322303EB0010A0FB0101D5
:1019B000F02000EA511000EB0210C1F3431108447B
:1019C0002168886010BD0000FEE7000000000000F4
:1019D00096B040F20008C4F20108FEF7FFFDFFF7E1
:1019E0001BFF002143F630000191C4F2020002689F
:1019F00040F2E73342F080020260026802F08002A7
:101A00000192019A0191026842F0010202600068AD
:101A1000072200F001000190019840F2C000C2F2DC
:101A200000001591CDE91311CDE910110791C0E91E
:101A30000082C0E90213C0E904118161FFF7D6F901
:101A400020B1EFF3108072B6FEE700BF4FF4805074
:101A5000129040F2C000C2F2000012A9FFF77EFA15
:101A600020B1EFF3108072B6FEE700BF40F2C00075
:101A7000C2F20000FFF768FC20B1EFF3108072B6ED
:101A8000FEE700BF40F2C000C2F2000010A9FFF75D
:101A900063F928B1EFF3108072B600BFFEE700BF14
:101AA000602009900020CDE90A00CDE90C00CDE9C5
:101AB0000E0040F2C000C2F2000009A90022FFF7A8
:101AC00047FB28B1EFF3108072B600BFFEE700BFFE
:101AD00040F2C000C2F2000009A90C22FFF738FB57
:101AE00020B1EFF3108072B6FEE700BF4FF4005054
:101AF000069040F2C0000024C2F2000001A9059443
:101B0000CDE90344CDE901440894FFF7FDF828B17D
:101B1000EFF3108072B600BFFEE700BF40F2C000D6
:101B2000C2F20000FFF7EAFA40F27006C2F20006C5
:101B300008F58051304640F80C1F4FF4E1310C227B
:101B4000C0E90114C0E90344C0E90524C461FFF7FA
:101B500013FD28B1EFF3108072B600BFFEE700BF9F
:101B600040F2C004C2F20004204600214FF0000AF7
:101B7000FFF78AFC20460C21FFF786FC9FED1C0B2B
:101B800006F10C04351D57EC109B11E0B6F805006A
:101B900000BA000C308000F0B8F94A463B4600F02D
:101BA0002BF800F083F97080C8F8400086F804A094
:101BB0002046294602226423FFF744FD307902289B
:101BC000E4D00128F4D1B6F8050000BA000C30804A
:101BD00000F09BF94A463B4600F00EF800F066F92B
:101BE0007080C8F8340086F804A0E1E700BF00BFA9
:101BF000FCA9F1D24D6210402DE9C04130B4DFF8AC
:101C0000A4C23CEA111418BF3CEA131400F0ED80A2
:101C10001CEA111481EA030544EAD57418BF1CEAD2
:101C2000131500F0C880A4EB050404F17F7404F5DB
:101C300000344FF0004545EAC12145EAC32341EA9B
:101C4000505143EA52534FEAC0204FEAC222994210
:101C500008BF904200F09D804FEA13650FF24416D2
:101C6000765D4FEA134506FB05F7C7F1807706FB63
:101C700007F74FEAD737A7FB03687642A7FB06CEE4
:101C8000C8F5803838BFA8F1010807FB08E6A6FBB5
:101C9000028C4FF0000EE6FB03CEDCF1000CCEF11F
:101CA000004E38BFAEF1010EA6FB0C584FF00007F6
:101CB000E6FB0E87A1FB08C6A0FB07CE16EB0E06BF
:101CC0004FF0000545F10005E1FB076515F1E04E19
:101CD0007EBFA4F580345FEA46066D4116F18007A9
:101CE00045F100054FEA172747EA05674FEA152532
:101CF0004FEA0666A6F1DE46B6F1805F20D9384687
:101D000005EBC47124F0010C01EB0C11BCF1FE6F6A
:101D100002D8F0BCBDE8008124425CBF01F5801E02
:101D20009EEAC47F02D4F0BCBDE80081244200F1E9
:101D30003980A1F1C041F0BCBDE8004100F046B9D6
:101D40004FEAD02040EA41504FEAD1214FEAD22257
:101D500042EA43524FEAD323A7FB028607FB0366FE
:101D600005FB02661EEA0E0F58BFA6EB0056B6EB47
:101D700000564FEA520E4EEAC37E18EB0E0E56EB9B
:101D8000530EBCD518EB02085E417F1C55F10005CF
:101D9000B5E74FF480154FF000074FF000064FF005
:101DA0000008ACE701F1C04101F000414FF0000034
:101DB000F0BCBDE800810CEA131511EA0C1F00D03D
:101DC0000CE013EA0C1F00F026804FF0000081EABF
:101DD000030101F00041F0BCBDE80081F0BCBDE8AA
:101DE000004181EA030100F0F1B8F0BCBDE8004118
:101DF00070B500F09DF800BF097EFC3E00F007B80A
:101E00004FF0000081EA030101F00041704781EAD0
:101E1000030100F0DBB8F0BCBDE8004122494FF0FF
:101E200000007047FFFDFBF9F7F5F4F2F0EEEDEB83
:101E3000E9E8E6E4E3E1E0DEDDDBDAD8D7D5D4D3C8
:101E4000D1D0CFCDCCCBCAC8C7C6C5C4C2C1C0BF14
:101E5000BEBDBCBBBAB9B8B7B6B5B4B3B2B1B0AF1A
:101E6000AEADACABAAA9A8A8A7A6A5A4A3A3A2A1FE
:101E7000A09F9F9E9D9C9C9B9A99999897979695B9
:101E800095949393929191908F8F8E8E8D8C8C8B55
:101E90008B8A8989888887878685858484838382DD
:101EA000828181800000FF070000F87F4FEA410334
:101EB0004FEA5353A3F58063D3F11E03C8BFD3F198
:101EC000210C0CDD4FF0004242EAC12242EA50529E
:101ED00032FA03FC8CEAE17CACEBE1707047102B2A
:101EE000C4BF0020704703F5787CBCF1FF3F04D0ED
:101EF0006FF0004282EA2100704770B500F018F8D8
:101F00004992248000207047F2E7B0FA80F310FA7B
:101F100003F10AD0C3F11D0303F580634FEA0352B6
:101F20004FEA415002EBD12170474FF0000070475B
:101F30000EF1020E2EF0030E5EF8046B364205D44D
:101F4000012A43EB030515F5001F12D8012841EBC8
:101F5000010C1CF5001F0CD80ED14FEAD17C0CEB04
:101F60004C0C0CF1020C15F5001F08BF4CEBD37C98
:101F700004E04FF0080C01E04FEAD37C0CEB4C0579
:101F800026FA05F606F00706B6F1040C06D20EEBAB
:101F9000860CBDE870404CF0010C6047DFE80CF0A7
:101FA000090B02024FF00041A1F500214FF00000A3
:101FB00070BD19461046012851EB010418BFD4F535
:101FC000001484BF002001F0004170BD0808A0F596
:101FD00000114FEA31017047F1EE100A4FF6FF7120
:101FE000C0F2C03120EA010040F04070E1EE100A7A
:101FF0007047000000000000000001020304060713
:10200000080900000000010203040000302000085D
:102010000000002010000000F80100084020000827
:102020001000002000070000180200080000000057
:1020300001000000100000000024F4000000000077
:040000050800019559
:00000001FF
