:020000040800F2
:10000000200B0020CD020008D9330008D1330008AE
:10001000D533000845100008B13F0008000000007B
:10002000000000000000000000000000ED3D00089E
:100030004910000800000000DD330008F13D000811
:10004000E7020008E7020008E7020008E7020008EC
:10005000E7020008E7020008E7020008E7020008DC
:10006000E7020008E7020008E7020008E7020008CC
:10007000E7020008E7020008E7020008E7020008BC
:10008000E7020008E7020008E7020008000000009D
:10009000000000000000000000000000E70200086F
:1000A000E7020008E7020008E7020008E70200088C
:1000B000E7020008B53E0008E7020008E702000872
:1000C000E7020008E7020008E7020008E70200086C
:1000D000E7020008E7020008E7020008000000004D
:1000E000E7020008E7020008E7020008000000003D
:1000F000000000000000000000000000E70200080F
:1001000000000000E7020008E7020008E70200081C
:1001100000000000000000000000000000000000DF
:10012000E7020008E7020008E7020008E70200080B
:10013000E7020008000000000000000000000000CE
:10014000000000000000000000000000E7020008BE
:10015000E7020008E7020008E7020008E7020008DB
:10016000E7020008E70200080000000000000000AD
:10017000000000000000000000000000000000007F
:1001800000000000E702000800000000000000007E
:10019000E702000800F002F800F088F814A696E8DC
:1001A000000CB244B344DA4501D100F07FF8BAE85C
:1001B0000F000FA696E83000A5EB040504EB060738
:1001C000AAEB0704A7F101074FEA15154FEA34140B
:1001D000A4F10104AC4201D300F068F813F0010F60
:1001E00018BFFB1A43F0010300F001F8DBE71847E2
:1001F00018630000386300000A444FF0000C10F848
:10020000013B13F0070408BF10F8014B1D1108BF94
:1002100010F8015B641E05D010F8016B641E01F834
:10022000016BF9D113F0080F1EBF10F8014BAD1C84
:100230000C1B09D16D1E58BF01F801CBFAD505E0A2
:1002400014F8016B01F8016B6D1EF9D59142D6D3FC
:10025000704700007047000000230024002500269E
:10026000103A28BF78C1FBD8520728BF30C148BF19
:100270000B607047662905F00282642900F0228134
:10028000632900F0CE84732900F0D38400207047E6
:100290001FB505F0E2F900F0D1FC040000200021B8
:1002A00004F07AFEE0601FBD10B510BD00F0C6FD81
:1002B0001146FFF7EDFF03F0A3FE00F0E4FD03B4E9
:1002C000FFF7F2FF03BC00F025FE0000094880475D
:1002D00009480047FEE7FEE7FEE7FEE7FEE7FEE728
:1002E000FEE7FEE7FEE7FEE704480549054A064B40
:1002F00070470000A13E000895010008200500207D
:10030000200B0020200700202007002053EA020CC9
:1003100000F069802DE9F04B4FF00006002B1FBF65
:10032000B3FA83F503FA05F424FA05F65E4012BF2A
:100330001643B2FA82F502FA05F4C5F120051EBF94
:1003400022FA05FC44EA0C04203556EA044C4FEA34
:10035000144418BF641C4FF000084FF0000990428D
:1003600071EB030C39D3002919BFB1FA81F701FAF7
:1003700007F6B0FA80F700FA07F6C7F120071EBFAC
:1003800020FA07FC46EA0C062037B6FBF4FCA7EB84
:100390000507103F07F01F0BCBF120062CFA06F6DD
:1003A0000CFA0BFB44BFB3460026202FA4BF5E46C9
:1003B0004FF0000B5BEA060C08BF4FF0010B19EB86
:1003C0000B0948EB0608ABFB027C06FB02CC0BFBDF
:1003D00003CCC01B71EB0C01C1E70B460246414642
:1003E0004846BDE8F08B13B5084318BF4FF0FF3007
:1003F0000146AFF30080BDE81C4070470FB41CB548
:10040000074B06AA7B4469460090059800F0E7FB7D
:100410000020694600F0F6FB1CBC5DF814FB0000F0
:10042000FD07000070B5044685690068C10601D566
:10043000302600E02026C00707D070BDD4E9012196
:1004400030469047206A401C20626D1EF6D570BD74
:1004500070B5044685690078C00707D170BDD4E93E
:10046000012120209047206A401C20626D1EF6D595
:1004700070BD70B50C460546012A05D02878800667
:1004800000D5EA69002302E0012305E05B1C9342EA
:1004900002D2E05C0028F9D1A869E618C01AA86168
:1004A000286A184428622846FFF7BCFF04E0D5E913
:1004B000012114F8010B9047B442F8D32846FFF706
:1004C000C7FF70BD2DE9F04106460024106875296C
:1004D000314616A510D0AFF30080002802DA404262
:1004E00013A507E031688A0701D512A502E0490784
:1004F00004D511A5012401E0AFF3008000210A22F8
:1005000006F1240709E0B0FBF2FCB0FBF2F302FBBA
:100510001C00303078541846491C0028F3D123467B
:100520002A463046BDE8F04100F0EDB8000000007A
:100530002D0000002B000000200000002DE9F05FDE
:10054000894604464FF0000ADFF824B1FB44C0F8A6
:1005500020A02046E168884700287DD0252806D0C5
:10056000D4E901219047206A401C2062F1E7002570
:100570005F462046E16888472028064607DB312E83
:1005800005D2B81910F8200C08B10543F1E7A80707
:1005900001D525F00405C4F81CA00027C4F818A054
:1005A0002A2E09D0304604F0EFFC38B304EB87085C
:1005B000303EC8F8186019E059F8041B204604EBD7
:1005C00087029161E1688847012F064618D1E069EA
:1005D000002820DA25F020051DE0D8F8180000EBEF
:1005E000800006EB40003038C8F818002046E1686B
:1005F0008847064604F0C8FC0028EED1012F0AD037
:100600002E2E08D12046E16888477F1C0646022F1F
:1006100045F02005C4DBA069002803DA404245F01C
:100620000105A061E80701D025F01005A6B1A6F1EB
:100630004100192802D8203645F400654A46314663
:10064000204625604D46FFF715FE60B1012807D012
:10065000ED1D25F0070000E007E000F1080978E74C
:1006600005F1040975E730467AE7206ABDE8F09F96
:100670003251000010B5431C02E010F8011B71B1AB
:100680008107FAD14FF0013202C88C1A8C4314EA68
:10069000C211F9D0C01A0A0603D0C01E10BDC01A7C
:1006A00010BD0A0401D0801E10BD0902FCD0401EFE
:1006B00010BD4FF0000200B513469446964620390F
:1006C00022BFA0E80C50A0E80C50B1F12001BFF40B
:1006D000F7AF090728BFA0E80C5048BF0CC05DF871
:1006E00004EB890028BF40F8042B08BF704748BFBF
:1006F00020F8022B11F0804F18BF00F8012B704733
:100700007047704770472DE9F0470D46994692466D
:10071000044600F124080168880604D5E06921F048
:100720001001216000E00120A84201DD471B00E02C
:100730000027A1697A1902EB0900081AA061207844
:10074000C00602D42046FFF76DFE002608E0D4E97B
:1007500001211AF806009047206A401C761C20628E
:100760004E45F4DB2078C0060AD52046FFF75AFE36
:1007700006E0D4E9012130209047206A401C206225
:10078000381EA7F10107F4DC07E0D4E9012118F8CD
:1007900005009047206A401C2062281EA5F1010533
:1007A000F3DC2046FFF754FE2078000602D5022035
:1007B000BDE8F0870120FBE72DE9FF4F0C461E4600
:1007C0004FF0FF378BB0D2E90001DDF860800A906E
:1007D0008A46C1F30A5505B93D46002108464FF047
:1007E0000000BAF1000F00F4400005DA00EB8000D1
:1007F0004FF4400101EA50004FEA9059B9F1010F5E
:1008000000DDB9460A9850EA4A000ED044F610506E
:10081000A5F2FF3545432F14B8F1000F1ED07542E5
:10082000291E1EDDC9F100021CE0B8F1010F4FF0D6
:10083000000001D0302103E0F24305E02154401CC8
:10084000B042FBDB30460022002121540B99C1F855
:100850000880C1E900200FB0BDE8F08FBD1B6D1C02
:10086000DEE74A4600DA694206A800F071FA06ABF4
:1008700093E8070003AB83E8070050460A9903F0AA
:10088000A3FF8DE80700A0F500501F3800900398E3
:10089000002D0ADD42F21F014A460844002303A945
:1008A0000390684604F00CFA09E0A0F500504A46AF
:1008B0001F38002303A90390684604F016FA8DE858
:1008C00007000004000C03D04FF0FF30410800E0A7
:1008D0001046B8F1000F03D00022009215461EE02A
:1008E000751E05D400F0AEF9303262556D1EF9D593
:1008F000B3460122084302D000227F1C04E0207886
:10090000302801D100227F1E002A099784D01DE0E3
:10091000112D07DA00F096F9303262556D1C50EA5D
:100920000102F5D1084302D00098C8B10EE00021C1
:10093000681E05E0235C625C63542254401E491C1F
:100940008142F7DBAB46A81B401E0990002004F84B
:100950000B000B98099AC0F80880C0E9002B7AE7D1
:1009600011264FF0000857E72DE9F04F884604465E
:10097000D21D22F0070191B0D1E90001CDE90A01B1
:1009800004F0EAFA02460B98C00F01D02D2007E0D0
:100990002068810701D52B2002E0202101EAC00058
:1009A000032A099001D0072A05DB03464146204669
:1009B00000F08EF90BE12078800601D5E06900E0B7
:1009C0000620B8F1650F814606D0B8F1660F18D041
:1009D000B8F1670F70D131E00020B9F1110F00902C
:1009E00001DB112301E009F101030AAA01A90CA806
:1009F000FFF7E2FEDDE90C70002609F101058346F0
:100A000047E001204B4600904FF000470AAA01A999
:100A10000CA8FFF7D1FEDDE90DB00C995D4600266C
:100A200010B909F101000D18B9EB050003D4C0F1AC
:100A3000FF3609F10105A5EB09002BE0B9F1010F23
:100A400001DA4FF001090020B9F1110F009048467A
:100A500001DD112300E003460AAA01A90CA8FFF753
:100A6000ABFEDDE90C704D4600268346207800077A
:100A70000AD4AB4500DA5D4601A8012D04DD411919
:100A800011F8011C302907D04F4502DA17F1040F85
:100A900004DA012082460FE06D1EEEE7002F02DC33
:100AA000ED1B3E4403E0781CA84200DD7D1CB81B12
:100AB00000F1010A4FF000472078000703D4AA454F
:100AC00001DB4FF0FF3A0021B7F1004F0DF1430871
:100AD0008DF8431024D002202B23002F01DA7F420F
:100AE0002D230A21021EA0F1010000DC5FB197FB5B
:100AF000F1FC97FBF1F201FB1C7C17460CF1300C6A
:100B000008F801CDEEE7A8F101000370218809057E
:100B100001D5452100E06521A0F1010800F8011C84
:100B200009980FA9A1EB0807FF1D00B10120411989
:100B300001EBEA70A1693844081A401EA0612078D0
:100B4000C00602D42046FFF76DFC099828B1D4E90D
:100B500001219047206A401C20622078C00622D5DF
:100B60002046FFF75FFC1EE0002E04DBB34502DDEC
:100B700001A8805D00E03020D4E901219047206A7F
:100B8000401C2062761CAAF101005FEA000A0AD12B
:100B900000F054F8C0680168405CD4E90121904736
:100BA000206A401C2062281EA5F10105DCDC07E05C
:100BB000D4E9012118F8010B9047206A401C2062FB
:100BC000381EA7F10107F3DC2046FFF741FC0320A4
:100BD00011B041E601694A1C02610878704700B50E
:100BE0008FB0CDE901310021059105497944CDE966
:100BF000031011466846FFF7A1FC0FB000BD0000CE
:100C0000E5FFFFFF0A6802F8010B0A60704710B5A4
:100C1000436913B1AFF3008001E0FFF72AFC012024
:100C200010BD127800F124010A7000224A700122DE
:100C3000EDE711684FF0FF32E9E700000048704728
:100C40004003002030B5B0F10A0271F100034FEA11
:100C5000900E4EEA817EB0EB0E0061EB91014FEAFF
:100C6000101E4EEA017E10EB0E0041EB11114FEA0F
:100C7000102E4EEA016E10EB0E0041EB11214FEAEF
:100C8000104E4EEA014E10EB0E0041EB11414018A0
:100C900041F100014FEAD00040EA41704FEAD10132
:100CA0004FEA810444EA907410EB800544EB0104A0
:100CB0006D1944EB0404521BA3414FF0000348BFDD
:100CC0000A3200D530BD401C41F1000130BD0000AA
:100CD0002DE9F0411F46044603260168072A01F466
:100CE000006004DB08B116A505E016A503E008B115
:100CF00015A500E015A521F010002060A069C01E18
:100D0000A0610FB1401EA0612046FFF78BFB4FB1E1
:100D1000D4E9012138469047206A401C2062C01C5B
:100D2000206206E0206AFAE7D4E9012115F8010BF8
:100D30009047761EF8D22046FFF78AFBBDE8F08187
:100D40004E414E006E616E00494E4600696E66006F
:100D50002DE9F047814616468AB0354878440DC8DB
:100D60008DE80D0032487844801C03AC0DC884E83F
:100D70000D0041F69B300844372190FBF1F290FBC7
:100D8000F1F5A5F1800501FB12041B3C02D564427C
:100D9000012000E00020DFF898A080460027FA44F8
:100DA000AAF1BE0A0EE0E0070AD03246684607EB19
:100DB000470101230AEB810103F097FF8DE807004B
:100DC00064107F1C002CEED1194F7F44AE3F19E018
:100DD000E80715D007EB04100DF1180A90E80E0093
:100DE0008AE80E00C068F04201D198190890324696
:100DF000012306A903A803F078FF03AB83E80700EB
:100E00006D10641C002DE3D14FF00103324669469A
:100E1000B8F1000F03A802D003F052FF01E003F085
:100E200064FFC9E90001C9F808200AB0BDE8F087ED
:100E3000B049000000487047200300207546FFF7C6
:100E4000F9FFAE4605006946534620F00700854687
:100E500018B020B5FFF748FABDE820404FF0000673
:100E60004FF000074FF000084FF0000BAC46ACE825
:100E7000C009ACE8C009ACE8C009ACE8C00921F081
:100E800007018D46704710B50446AFF30080204639
:100E9000BDE81040FFF713BA30B44FF0013C50F8F2
:100EA000042B51F8043BCCFA52F4D51A20D1FCB9EA
:100EB00050F8042B51F8043BCCFA52F4D51A17D150
:100EC000B4B950F8042B51F8043BCCFA52F4D51ABB
:100ED0000ED16CB950F8042B51F8043BCCFA52F403
:100EE000D51A05D1002CDAD030BC4FF00000704785
:100EF00029BAB1FA81F111F01801D1F12000844032
:100F0000F2D1CA40CB4012F0FF0213F0FF0330BC15
:100F1000D01A704701491820ABBEFEE72600020038
:100F20007047000090ED030A7047000000000000C9
:100F30002DE9F04381B004460069E1886427224628
:100F40000623009700F048FB94F9000000283AD4EB
:100F5000E078217900F00F000004677940EA012071
:100F600094F8018094F80290384404F005F99FED5C
:100F7000180B55EC106B32462B4604F011F99FED1F
:100F8000160B53EC102B04F00BF99FED150B53ECE3
:100F9000102B04F049F804F015F8A0604FEA08306F
:100FA00040EA171040EA091004F0E6F832462B46F2
:100FB00004F0F6F89FED0C0B53EC102B04F0F0F856
:100FC00004F000F8E06001B0BDE8F08300BF00BFAE
:100FD000000000000000B03E00000000000069407A
:100FE00000000000000049C000000000000059405F
:100FF00090ED020A7047000080B582B0036943F2A9
:10100000AC32C18801924FF0640C01AA1846032348
:10101000CDF800C000F0E4FD02B080BD80B582B024
:101020000369BA22C1888DF807204FF0640C0DF1D6
:10103000070218460123CDF800C000F0D1FD02B030
:1010400080BD0000FEE7000070470000B0B5044618
:1010500000F0F4F8054640F21C00C2F200000078EF
:10106000611C18BF044400BF00F0E8F8401BA04218
:10107000FAD3B0BD2DE9F04F82B000F13E4707F141
:10108000FF77860546EA972741F20006C4F202067A
:10109000072243F6004EB04208BF0422C4F2010EFC
:1010A000042F38BF3A46002600274FF00008009270
:1010B00009E000BF08F101080237B8F1100F06F18E
:1010C000040600F0A3800D68012202FA08F415EA74
:1010D0000409EFD0D1F804B003220BF0030CACF1FB
:1010E0000105BA40012D6FEA020A0FD88268CD6867
:1010F00002EA0A02BD402A4382604268A243CBF35F
:10110000001404FA08F42243426005E0BCF1030F26
:1011100002D14FF0030C1EE0C2688C6802EA0A029A
:10112000BC402243BCF1020FC26014D16FF0030235
:1011300002EA58020244D2F820C006F01C040F2331
:101140000D69A3402CEA0303A5402B431362D1F899
:1011500004B00BF0030C02680CFA07F302EA0A026F
:101160001A431BF4403F0260A4D0002243F644031C
:101170000192C4F202031A684FF6084C42F480420E
:101180001A601A68CFF6FF7C02F480420192019A3D
:1011900028F00302724452F80C3006F00C050F24BC
:1011A000AC40A343009C04FA05F52B4342F80C30F5
:1011B000DEF808204B6842EA090543F60C4CDC02D5
:1011C00058BF22EA0905CEF80850C4F2010CDCF839
:1011D00000209C0242EA090558BF22EA0905CCF822
:1011E0000050DEF804209C0342EA090558BF22EAB9
:1011F0000905CEF80450DEF80020DB0342EA0905B9
:1012000058BF22EA0905CEF8005053E702B0BDE806
:10121000F08F00000069084018BF012070470000EF
:10122000426902EA0103914341EA03418161704747
:10123000002A08BF090481617047000040F21C5079
:10124000C2F2000000687047002804BF0120704708
:10125000F0B581B0044690F83D0028B9002084F82C
:101260003C00204600F0D6FE242084F83D00206893
:10127000016821F001010160016841F40041016051
:10128000016821F40041016001F064F8636848F2EC
:10129000A16CC0F2010C40F60011C0F23D016345A3
:1012A0003CBF48F28041C0F21E01884202D20120B8
:1012B00001B0F0BD4DF68361C4F21B31A0FB0112F9
:1012C0002168970CD1F804E04FF496762EF03F0594
:1012D00045EA92454D60774348F638160D6AC0F2EC
:1012E0004106A7FB067625F03F07634538BF960CFD
:1012F000721C3A430A62CA6948F2A0664CF6FF774C
:10130000C0F20106B34222EA07020BD801385B00A3
:10131000B0FBF3F001306FF31F30042898BF0420B6
:101320001BE000BFA768013857B119277B43B0FB0A
:10133000F3F001306FF31F3070B100F5804007E02B
:1013400003EB4303B0FBF3F001306FF31F3018B130
:1013500000F5004001E000BF01201043C8610868AB
:10136000D4E9072320F0C0001043184308608868C0
:1013700048F2FF3204F10C0790438CCF184310431E
:10138000A6698860C86820F0FF0038433043C86011
:10139000086840F00100086000202021206484F8E3
:1013A0003D10206384F83E0001B0F0BD2DE9F04F00
:1013B00081B01D46174688460446FFF73FFF94F864
:1013C0003D10202920D1064621688869800717D55D
:1013D000FFF734FF801B1928F6D900202021206355
:1013E00084F83D1084F83E00216C022541F0200174
:1013F000216484F83C00284601B0BDE8F08F00BFAE
:1014000094F83C00012805D10225284601B0BDE82A
:10141000F08F00BF4FF0010984F83C900868C007C6
:1014200003D1086840F00100086008684FF0000A26
:1014300020F400600860242084F83D000020CFF6EE
:10144000FF70C4F840A0E06208F0FE08012F88BFDA
:10145000B94605F1010BA027086840F480700860C8
:101460004869C00710D1BBF1000F57D0002D00F024
:10147000978000BFFFF7E2FE801BA84200F2928037
:1014800021684869C007F5D0C1F81080FFF7D6FE83
:1014900021684B694A6994F83D60A02E06461ED02B
:1014A00013F0020008BF12F4806018D1FFF7C6FEE7
:1014B00035B1801BA84288BF84F83D7002E000BFB0
:1014C00084F83D7021684A69486994F83D30A02B42
:1014D00005D012F0020208BF10F48060E6D0202090
:1014E00084F83D0048690A68800742F400720A6087
:1014F00022D46FF4806048618869800709D500BFF5
:10150000FFF79CFE801B192832D821688869800764
:10151000F6D40AF1010ACA459ED13BE04869C007EA
:10152000B2D14869C00704BF48695FEAC070ABD157
:101530004869C007F2D0A7E70025009548690090E8
:101540008869009000988869800708D5FFF776FEC3
:10155000801B19280CD8206880698007F6D42020C9
:1015600084F83D0084F83C50284601B0BDE8F08F77
:1015700000202021206384F83D1084F83E00216C77
:1015800041F020012164012584F83C00284601B087
:10159000BDE8F08F202084F83D000020F3E700BF75
:1015A000FFF74CFE00202021206384F83D1084F8D2
:1015B0003E00216C032541F020012164216884F85C
:1015C0003C000868C00544BF4FF400702064284602
:1015D00001B0BDE8F08F00002DE9F04182B01F4658
:1015E000164688460446FFF729FE94F83D10202948
:1015F0001ED1054620688169890715D5FFF71EFEB3
:10160000401B1928F6D900202021206384F83D10C2
:1016100084F83E00216C41F02001216484F83C00F4
:10162000022002B0BDE8F08194F83C10012903D1FA
:10163000022002B0BDE8F081012184F83C1001686D
:10164000C90703D1016841F001010160016821F47B
:1016500000610160222184F83D10102184F83E10C1
:101660000021216466626785618D21850021CFF6A6
:10167000FF71E162E16A026811F5803F42F4806225
:10168000026018BF012919D1016841F4807101601D
:101690004169089EC90724D1711C18D0002E00F0A2
:1016A000CB8000BFFFF7CAFD401BB04200F2C680EE
:1016B00020684169C907F5D013E000BF0829E3D0CD
:1016C000216B1129E0D0E3E74169C90709D14169DC
:1016D000C90706D14169C90704BF41695FEAC17101
:1016E000F2D02169B1F5804F08D148F00101C9B2AB
:1016F00001614169890740F1CC8003E1062101EADB
:10170000D81707F1F00101614169090738D441692F
:10171000721C4FEA415113D0002900F1E980002EDC
:1017200000F01082FFF78AFD401BB04200F20C82ED
:1017300020684169090723D441694905F2D5D7E0FA
:10174000002900F1D5804169090719D4416949058B
:1017500000F1CE804169090712D44169490500F1C1
:10176000C780416909070BD44169490500F1C08070
:101770004169090704D441694905E4D5B8E000BFCF
:101780005FFA88F101614169890739D44169721CA6
:101790004FEA415114D0002900F1AA80002E00F038
:1017A000D181FFF74BFD401BB04200F2CD81206894
:1017B0004169890724D441694905F2D598E000BF01
:1017C000002900F195804169890719D441694905CB
:1017D00000F18E804169890712D44169490500F101
:1017E0008780416989070BD44169490500F18080F0
:1017F0004169890704D441694905E4D578E000BF0F
:10180000002101914169019181690191019901686A
:1018100041F4807101604169C90734D1711C28D03D
:1018200056B1FFF70BFD401BB04207D82068416955
:10183000C907F6D027E000BFFFF700FD00202021F8
:10184000206384F83D1084F83E00216C41F02001B3
:101850002164216884F83C000868C00544BF4FF447
:1018600000702064012002B0BDE8F0814169C90721
:1018700009D14169C90706D14169C90704BF416956
:101880005FEAC171F2D047F0F10101614169890756
:1018900038D44169721C29D0490529D4002E00F0A2
:1018A0005181FFF7CBFC401BB04200F24D81206814
:1018B0004169890726D441694905F2D518E000BF7E
:1018C000416989071ED44169490511D441698907D5
:1018D00018D4416949050BD44169890712D441697B
:1018E000490505D4416989070CD441694905E7D503
:1018F000016841F4007101606FF48061416104206E
:1019000023E100BF218D99B1022927D001292DD1D2
:10191000026822F480620260002201924269019210
:1019200082690192019A026842F40072026028E022
:101930000021019141690191816901910199016839
:1019400041F400710160202084F83D00002084F8FB
:101950003E0084F83C0002B0BDE8F081026822F449
:1019600080620260026842F4006202E0026842F4AF
:1019700080620260002201924269019280690190B6
:10198000019888B2032817D802283FD0012851D1E6
:10199000002E00F099802068014651F8142F52065D
:1019A00000F196800868C00600F1F280FFF746FC5F
:1019B000401BB042EFD9E0E086B100BF206801468D
:1019C00051F8142F52060ED40868C00600F1E080CA
:1019D000FFF734FC401BB042F0D9CEE020684169EB
:1019E000490640F1C3800069616A0870606A218D10
:1019F00001300139606221852268638D013B638576
:101A000053695B0770D51169017064E02068416912
:101A1000490745D4711C6BD0002E00F0CD80FFF734
:101A20000DFC401BB04200F2C980206841694907A3
:101A3000F5D535E02068416949070ED4711C65D0A1
:101A4000002E00F0B980FFF7F9FB401BB04200F216
:101A5000B580206841694907F5D5016821F48061A6
:101A600001600069616A0870606A218D0130013986
:101A7000606221852068618D01396185416949076E
:101A80000ED4711C50D0002E00F09680FFF7D6FBCC
:101A9000401BB04200F29280206841694907F5D5A9
:101AA000016841F4007101600069616A0870606A50
:101AB0002268411C6162218D01392185618D0139C6
:101AC00061851169417006E02068416949064DD57C
:101AD0000069616A0870606A218D013001396062B5
:101AE0002185608D0138608508047FF44AAF2AE7BC
:101AF00041694907D4D4416949075CBF41695FEA3C
:101B00004171CDD441694907F2D5C9E74169490717
:101B1000A3D4416949075CBF41695FEA41719CD424
:101B200041694907F2D598E741694907B8D4416945
:101B300049075CBF41695FEA4171B1D44169490716
:101B4000F2D5ADE7FFF77AFB2020002120222163A8
:101B500084F83D2084F83E10226C1043206484F801
:101B60003C10012002B0BDE8F08100BF50F8141F06
:101B7000C90601460CD4FFF761FB00202021206339
:101B800084F83D1084F83E00206C40F020000AE00C
:101B90006FF01000086000202021206384F83D10C1
:101BA00084F83E00206C2064002084F83C00012072
:101BB00002B0BDE8F08100BFFFF740FB002020210C
:101BC000206384F83D1084F83E00216C41F0200130
:101BD000216484F83C00012002B0BDE8F0810000DF
:101BE0002DE9F04381B01F46164688460446FFF7AC
:101BF00025FB94F83D10202920D1054620688169F5
:101C0000890717D5FFF71AFB401B1928F6D90020C2
:101C10002021206384F83D1084F83E00216C0226C8
:101C200041F02001216484F83C00304601B0BDE859
:101C3000F08300BF94F83C10012905D102263046FC
:101C400001B0BDE8F08300BF012184F83C100168B9
:101C5000C90703D1016841F001010160016821F465
:101C600000610160212184F83D10102184F83E10AC
:101C70000021216466626785618D21850021CFF690
:101C8000FF71E162E16A11F5803F18BF012919D1A6
:101C9000016841F4807101604169DDF82090C90755
:101CA00023D119F1010116D0B9F1000F48D000BFBE
:101CB000FFF7C4FA401B484544D820684169C9076A
:101CC000F6D012E00829E3D0216B1229E0D0E3E737
:101CD0004169C90709D14169C90706D14169C907E5
:101CE00004BF41695FEAC171F2D02169B1F5804F4B
:101CF00002D1FE215DE000BF062101EAD811F031DA
:101D000001614169090753D4416919F101024FEAA0
:101D1000415131D0002900F18380B9F1000F00F06A
:101D20003981FFF78BFA401B484500F23581206866
:101D3000416909073CD441694905F2D570E000BF0B
:101D4000FFF77CFA00202021206384F83D1084F8FE
:101D50003E00216C012641F020012164216884F8B5
:101D60003C000868C00544BF4FF400702064304652
:101D700001B0BDE8F08300BF002951D441690907D3
:101D800016D4416949054BD44169090710D441690A
:101D9000490545D4416909070AD4416949053FD439
:101DA0004169090704D441694905E7D538E000BF16
:101DB000FF2101EA08010161416989073AD44169BB
:101DC00019F101022AD049052AD4B9F1000F00F017
:101DD000E180FFF733FA401B484500F2DD802068C0
:101DE0004169890726D441694905F2D518E000BF49
:101DF000416989071ED44169490511D441698907A0
:101E000018D4416949050BD44169890712D4416945
:101E1000490505D4416989070CD441694905E7D5CD
:101E2000016841F4007101606FF480614161042038
:101E3000B3E000BF002600964169009181690091DE
:101E40000099218D002900F0958009F101080146D3
:101E500051F8142F120635D4B8F1000F16D0B9F18D
:101E6000000F00F0AB8000BF0868400500F1AE80B5
:101E7000FFF7E4F9401B484500F2A58020680146C1
:101E800051F8142F1206EFD51CE000BF0A68520566
:101E900000F19C800A68120614D40A68520500F109
:101EA00095800A6812060DD40A68520500F18E80EA
:101EB0000A68120606D40A68520500F187800A688B
:101EC0001206E3D5636A194611F8012B02616162BB
:101ED000618D01396185278D0146A7F1010CA4F8B8
:101EE00028C051F8142F52070DD55FEA0C420AD0D2
:101EF0005A78A7F1020C02619A1C6262628D013A63
:101F00006285A4F828C00A6852072FD4B8F1000FE0
:101F100014D0B9F1000F51D00868400556D4FFF72E
:101F20008DF9401B48454ED82068014651F8142FC2
:101F30005207F1D5B4F828C018E000BF0A6852056E
:101F400044D40A68520711D40A6852053ED40A687C
:101F500052070BD40A68520538D40A68520705D4D0
:101F60000A68520532D40A685207E7D55FEA0C4185
:101F70007FF46DAF016841F400710160202084F8A6
:101F80003D0084F83E6084F83C60304601B0BDE816
:101F9000F08300BFFFF752F92020002120222163A7
:101FA00084F83D2084F83E10226C01261043206402
:101FB00084F83C10304601B0BDE8F0830868400565
:101FC00004D4FFF73BF9202004E000BF6FF48060E9
:101FD0000860042000212022216384F83D2084F839
:101FE0003E10226C1043206484F83C10206C0428BE
:101FF0000AD120680126016841F400710160304671
:1020000001B0BDE8F08300BF0126304601B0BDE855
:10201000F0830000016845F20040C4F200008142F4
:1020200018BF7047B0B586B0002443F63005019460
:10203000C4F20205296800F5D83041F00201296098
:10204000296801F0020101910199C0210191122139
:10205000CDE90214032104910421059101A9FFF7A0
:1020600009F80094286940F400102861286900F4F8
:1020700000100090009806B0BDE8B0407047000026
:1020800040F21C0040F21C51C2F20000C2F20001FA
:1020900000780A68104408607047000080B543F675
:1020A0000040C4F20200016841F40071016001685F
:1020B00041F480610160016841F480710160032096
:1020C00000F086F80F2000F005F800F027F8002057
:1020D00080BD000070B540F21C06C2F2000640F25E
:1020E00018313278C2F200014FF47A730968B3FBF9
:1020F000F2F20446B1FBF2F1084600F01DFD0F2C90
:102100004FF0010508D838B94FF0FF3021460022C2
:10211000002500F031F87460284670BD82B00020C0
:1021200043F640010190C4F202014A6842F4804241
:102130004A604A6802F480420192019A009008685D
:1021400040F080500860086800F0805000900098CF
:1021500002B07047002848BF704700F01F010122FD
:1021600002FA01F11C2202EAD0004EF20012CEF275
:10217000000281507047000010B54EF60C5CCEF2A4
:10218000000CDCF80030C3F3022E8EF00704042CA0
:1021900028BF0424BEF103034FF0FF3E0EFA04F4FF
:1021A00038BF0023A14399400EFA03F39A43114329
:1021B00000F00F0200F160430901043A03F56443A3
:1021C0006244002848BF02F10C03197010BD0000E2
:1021D0004EF60C51CEF200010A684FF6FF031A408A
:1021E00060F30A2242F0806040F0FD7008607047A2
:1021F000002804BF012070472DE9F04143F608088C
:10220000C4F202080446D8F8F8030D4600F00700AF
:10221000884207D288F8F853D8F8F80300F007008E
:10222000A84277D12068810717D5410705D5D8F88E
:10223000001041F4E051C8F80010010705D5D8F8A6
:10224000001041F46041C8F80010D8F80010A268EE
:1022500021F0F0011143C8F80010C00740D1D8F8B0
:10226000F80300F00700A84207D988F8F853D8F817
:10227000F80300F00700A8424CD12068410707D5B9
:10228000D8F80010E26821F4E0511143C8F80010BA
:10229000000708D5D8F80000216920F4604040EA22
:1022A000C100C8F8000000F07DF8D8F8001045F231
:1022B0002872C1F30311C0F60002515C40F21832DB
:1022C00020FA01F140F22000C2F200000068C2F2E0
:1022D00000021160FFF7FEFE0020BDE8F08100BFA4
:1022E0006068811E022907D258F8081C89015CBF6A
:1022F0000120BDE8F08111E0012807D158F8081C41
:1023000089035CBF0120BDE8F08107E058F8081C94
:10231000890703D40120BDE8F08100BFD8F8001080
:1023200021F003010843C8F80000FEF787FF0646C6
:1023300041F28837D8F80000616800F00C00B0EB7B
:10234000810F8CD0FEF77AFF801BB842F2D90320B0
:10235000BDE8F08140F2183043F60801C2F20000F7
:10236000C4F202010068096845F23872C1F38221A3
:10237000C0F60002515CC8407047000040F21830BF
:1023800043F60801C2F20000C4F2020100680968C5
:1023900045F23872C1F34231C0F60002515CC840C8
:1023A0007047000010B543F60404C4F202046068EC
:1023B00000F00C0008280BD0042819BF42F200409E
:1023C000C0F2F40047F64000C0F27D1010BD00BF1F
:1023D000206821682368490247F64001C0F27D1158
:1023E00000F03F02C3F388105CBF42F20041C0F22C
:1023F000F401A1FB00010023FDF788FF2168022200
:10240000C1F3014102EB4101B0FBF1F010BD00004E
:10241000002804BF012070472DE9F04182B0044636
:10242000007843F60006C007C4F202060CD0B0687C
:1024300000F00C00042840F081803068800303D550
:102440006068002800F06A81207880071BD5B0689A
:1024500010F00C0F09D0B06800F00C00082840F014
:1024600087807068400200F183803068800703D560
:10247000E068012840F052813068216920F0F800BE
:1024800040EAC10030602078000713D4207840076C
:102490002AD4A569002D00F03C81B06800F00C0042
:1024A000082840F0A180012D40F01081012002B0E9
:1024B000BDE8F0816069002840F20000C4F24720C6
:1024C00000F07E800121C0F8801EFEF7B7FE0546B1
:1024D000706F8007DAD4FEF7B1FE401B0228F7D9EF
:1024E000032002B0BDE8F081306C5FEAC0080AD476
:1024F00000200190306C40F080503064306C00F06F
:1025000080500190019847F20007C4F20007386834
:10251000C00547D4386840F480703860FEF78EFEFE
:10252000054600BF3868C0053CD4FEF787FE401B57
:102530000228F7D9032002B0BDE8F081B06800F0AE
:102540000C00082803D1706840023FF576AF606840
:10255000B0F5803F07D0B0F5A02F40F09B803068E9
:1025600040F480203060306840F4803030609BE080
:10257000E06800285CD00020C4F2472001210160FF
:10258000FEF75CFE054600BF306880073FF574AF7C
:10259000FEF754FE401B0228F6D9032002B0BDE826
:1025A000F08100BFA068012805D0052854D1306F04
:1025B00040F004003067306F40F00100306755E0B4
:1025C0000021C0F8801EFEF739FE0546706F8007B7
:1025D0007FF55CAFFEF732FE401B0228F6D90320E0
:1025E00002B0BDE8F08100BF0027C4F247270020F9
:1025F0003866FEF723FE022D05460DD130688001B6
:1026000040F19080FEF71AFE401B02284FF00300B5
:10261000F4D902B0BDE8F0813068800179D5FEF7C9
:102620000DFE401B02284FF00300F5D9F1E700BF73
:102630000020C4F2472000210160FEF7FFFD05469F
:10264000306880077FF51FAFFEF7F8FD401B0228BA
:102650004FF00300F4D9DCE7316F002821F00101CD
:102660003167316F21F0040131677DD0FEF7E6FD5F
:10267000054641F2883700BF306F800700F1868041
:10268000FEF7DCFD401BB842F6D9032002B0BDE8DE
:10269000F08100BF3168002821F480313160316859
:1026A00021F4802131607BD0FEF7C8FD054600BFD4
:1026B000306880033FF5C8AEFEF7C0FD401B6428BC
:1026C000F6D9032002B0BDE8F08100BF7068E1696F
:1026D00000F480028A4221D1216A00F03F028A423E
:1026E0001CD147F6C071626A0140B1EB821F15D15F
:1026F000A16A4FF6FF73C903994300F44032A1F574
:1027000080318A420AD1E16A00F07060B0EB016F5B
:1027100004D1002002B0BDE8F08100BF012002B06A
:10272000BDE8F08104F11C052FCD084340EA82107A
:10273000D9034FF6FF729143A1F5803140EA05605D
:102740000843706001203866FEF778FD044600BF3C
:1027500030688001DDD4FEF771FD001B02284FF0C8
:102760000300F5D955E700BFFEF768FD054641F2C5
:10277000883700BF306F800708D5FEF75FFD401B2C
:10278000B8424FF00300F5D943E700BFB8F1000F9E
:102790003FF57FAE306C20F08050306479E600BFAA
:1027A000FEF74CFD054600BF306880037FF54CAE58
:1027B000FEF744FD401B64284FF00300F4D928E7DE
:1027C00090F851007047000070B538B10446406A77
:1027D00030B10020206104F1140007E0012070BD39
:1027E0006068B0F5827F03D004F11C000021016015
:1027F0000026A66294F8510020B9204684F8506063
:1028000000F03CF8022084F8510094E80F0001F435
:102810008271056802F4044225F040050560114408
:1028200003F400622369114403F002026369114456
:1028300003F00102A369E569114403F40072114435
:1028400005F03802256A114405F08002A56A11439B
:1028500005F4005211430160626A042101EA134148
:1028600002F0100211444160C16921F40061C161AC
:102870000120666584F85100304670BD016843F25E
:102880000000C4F20100814218BF704780B586B0D5
:10289000002143F630020191C4F20202536900F5AF
:1028A000504043F480535361536903F480530193C0
:1028B000019B0191136843F001031360126802F059
:1028C00001020192019AA02201920222CDE9022185
:1028D000032104910521059101A9FEF7CBFB06B068
:1028E000BDE88040704700002DE9F04383B0044606
:1028F00090F85000012803D1022003B0BDE8F08316
:102900004FF001091D4616460F4684F85090FEF719
:1029100095FC94F85110012944D18046002F4FF0C6
:10292000010018BF002E00F0D4800320002184F89D
:10293000510061652763A686E686A163A187E187CA
:10294000A0682164B0F5004F2068616407D1016878
:1029500021F040010160016841F48041016001689B
:10296000490603D4016841F0400101606168731EAB
:10297000E268B1FA81F1B3FA83F349095B09B2F570
:10298000006F41EA03013BD131B137F8021BC1604E
:102990002763E08E0138E086E08E00286AD0681C4C
:1029A0000DD11CE0022094E0216B31F8022BC260B3
:1029B0002163E08E0138E086E08E00285AD020683E
:1029C00081688907F0D4FEF739FCA0EB0800A84223
:1029D000F2D338E0FEF732FCE08E00284AD02068BF
:1029E00081688907F6D5216B31F8022BC26021631B
:1029F000E08E0138E086E08E0028F0D13AE000BF9A
:102A000039B139780173206B01302063E08E0138D1
:102A1000E086E08E70B3681C0BD11BE0216B097857
:102A20000173206B01302063E08E0138E086E08E78
:102A300000B3206881688907F0D4FEF7FFFBA0EBA4
:102A40000800A842F3D3032043E000BFFEF7F6FBE3
:102A5000E08E78B1206881688907F7D5216B097805
:102A60000173206B01302063E08E0138E086E08E38
:102A70000028EFD140F21830C2F20000006849F699
:102A80008171C1F25E61A0FB0101480D4FF47A71C2
:102A9000484302906068B0F5827F23D120468021B0
:102AA0002A46434600F09CFC28B1606D40F02000AF
:102AB000606520206065A06838B90020019020681A
:102AC000C1680191806801900198606D002818BF6D
:102AD0000120002184F8519084F8501003B0BDE823
:102AE000F08300BF02980028E5D0029801380290D8
:102AF000206880680006DED502980028DBD00298A6
:102B000001380290206880680006D4D50298002819
:102B1000D1D0029801380290206880680006CAD59A
:102B200002980028C7D00298013802902068806877
:102B30000006D7D4BFE70000411E0020B0EB116FA4
:102B40001CBF012070474EF21002CEF2000251600D
:102B50004EF62351CEF20001F0230B700721906056
:102B600011607047704700007047000090F83C20EB
:102B7000012A4FF0020241D010B580F83D200268D2
:102B8000D2F804E0D2F808C00C682EF0700323439A
:102B900040F6FF34C4F20004A242536010DCB2F1EC
:102BA000804F1ED040F20043C4F200039A4218D076
:102BB00040F60003C4F200039A4212D016E000BFB0
:102BC00040F60043C4F200039A420AD044F20003E4
:102BD000C4F201039A4204D00023C4F201039A42D2
:102BE00004D149682CF0800319439160012100222F
:102BF00080F83D1080F83C20BDE81040104670473A
:102C000090F83D1001291CBF01207047022180F877
:102C10003D10006840F6FF32C168C4F200029042E5
:102C200041F00101C1600FDCB0F1804F1DD040F2D6
:102C30000041C4F20001884217D040F60001C4F2FE
:102C40000001884211D017E040F60041C4F20001B3
:102C500088420AD044F20001C4F20101884204D043
:102C60000021C4F20101884206D1816801F0070108
:102C7000062904BF00207047016841F0010101608E
:102C800000207047002804BF012070472DE9F04F55
:102C900081B0044690F83D00884628B9002084F8A9
:102CA0003C00204600F0BAF8022084F83D0020687D
:102CB00044F20702816840F2FF7391438160026829
:102CC000C4F2000340F2000C9842C4F2010C1DDD76
:102CD00040F60001C4F20001884220D060451ED0B9
:102CE00040F60041C4F20001884218D04FF6FF714F
:102CF000C4F2000188421CDC984225DCB0F1804F10
:102D00003AD040F20041C4F2000133E0B0F1804F0C
:102D100005D040F20041C4F200018842E6D1A1682A
:102D200022F070020A434FF6FF71C4F2000188429C
:102D3000E2DD44F2FF31C4F20101884210DC60455B
:102D40001AD044F2000113E040F60001C4F2000181
:102D5000884211D040F60041C4F200010AE000BFF1
:102D600044F60001C4F20101884205D044F200415A
:102D7000C4F20101884203D1216922F440720A435E
:102D8000A36922F080016268E5681943604501602B
:102D9000C562826202D16169CCF8301001214161C3
:102DA00082688369D0F820C0D8E9005ED8E9027B48
:102DB00045EA020AD8F818504FF6FF7923EA0903CA
:102DC00047EA05254FF6FC47BD43D8E9077643EAB5
:102DD0000B03D8F810202B4343EA072343EA0212DF
:102DE0002CF0AA03D8F8147043EA0E0342EA063224
:102DF00043EA0713C0F808A08261036284F8461012
:102E000084F83E1084F83F1084F8421084F8431090
:102E100084F83D10002001B0BDE8F08F016840F259
:102E20000040C4F20000814218BF704780B586B0F0
:102E3000002143F630020191C4F20202136900F549
:102E4000003043F002031361136903F0020301939E
:102E5000019B0191136843F002031360126802F0B2
:102E600002020192019A302201920222CDE902214E
:102E7000CDE9041201A9FEF7FDF81D200021002272
:102E8000FFF77AF91D20FFF765F906B0BDE880402D
:102E90007047000080B590F83E2090F83F3090F8E1
:102EA00042E090F843C004290AD0F9B9012A4FF052
:102EB000010208BFBEF1010F46D0104680BD00BF21
:102EC000012B4FF0010208BFBCF1010FF5D1022127
:102ED00080F83F1080F843100068016A21F010016B
:102EE0000162016A41F0100101622AE0012A4FF0FB
:102EF000010208BF012BE0D1BEF1010FDDD1BCF111
:102F0000010FDAD1022280F83E2080F83F2080F8BD
:102F1000422080F84320E1B10068016A21F00101FC
:102F20000162016A41F001010162016A21F01001B0
:102F30000162016A41F010010162C16841F00201C1
:102F4000C16004210FE000BF022180F83E1080F82C
:102F500042100068016A21F001010162016A41F03A
:102F6000010101620221C2681143C16001680022AF
:102F700041F001010160104680BD00007047000073
:102F800010B5016804460869800744BFC8685FEA55
:102F9000807039D40869400744BFC8685FEA407050
:102FA0003ED40869000744BFC8685FEA007045D492
:102FB0000869C00644BFC8685FEAC0604AD40869AF
:102FC000C0071CBFC8685FEAC07051D1086900061D
:102FD00044BFC8685FEA006052D40869400644BF35
:102FE000C8685FEA406053D40869800646BFC86875
:102FF0005FEA806010BD6FF0200220460A61BDE8E4
:103000001040FFF7B1BD00BF6FF002000861012062
:1030100020778869800743D02046FFF7AFFF45E05F
:103020006FF00400086102202077886910F4407F67
:1030300040D02046FFF7A2FF42E000BF6FF008003B
:10304000086104202077C86980073DD02046FFF73B
:1030500095FF3FE06FF01000086108202077C869F5
:1030600010F4407F3AD02046FFF788FF3CE000BFD5
:103070006FF001000861204600F03EF82168A5E7E6
:103080006FF0800008612046FFF76CFD2168A4E71F
:103090006FF040000861204600F032F92168A3E794
:1030A000204600F025F8204600F024F82168002092
:1030B00020776FE7204600F01BF8204600F01AF852
:1030C0002168002020776CE7204600F011F82046A8
:1030D00000F010F821680020207769E7204600F012
:1030E00007F8204600F006F821680020207766E700
:1030F0007047000070470000F0B581B0006840F2F2
:103100000045C4F20005A84202D001B0F0BD00BFE6
:10311000FEF794F840F28834C2F20004E168401AE5
:103120006528F2D3A0780028EFD1FEF787F8E06099
:1031300040F20000C2F20000012101702A686178AB
:10314000E078D20656D4002900F0BA8094F9031032
:10315000942040F22C054143C2F200056A58013A1E
:103160006A5094F903104143695894F9032012FB03
:1031700000529268914208DA94F9031011FB005151
:10318000496894F903204243A95094F9031011FBB4
:103190000050007E0128B8D194F90300942600FB6A
:1031A00006F7E85902F0E8F99FED530B53EC102BAA
:1031B00001F03AFF01F006FFE85194F9030010FB1B
:1031C000065090ED000A94F9030010FB065090EDB4
:1031D000021AB4EE410AF1EE10FA96DA94F90300FD
:1031E00010FB0650406894F903107143685001B019
:1031F000F0BD00BF00296FD040F22C0541B2C2F2F1
:103200000005942011FB0051097E31B194F903109F
:1032100011FB0051097E02291AD194F90310414390
:103220006A5801326A5094F903104143695894F97D
:10323000032012FB00504068814209DD94F903002D
:10324000942110FB0150806894F903205143685089
:1032500094F90300942610FB0650007E01287FF4A9
:1032600054AF94F9030000FB06F7E85902F084F923
:103270009FED1F0B53EC102B01F0D6FE01F0A2FEC8
:10328000E85194F9030010FB065090ED000A94F900
:10329000030010FB065090ED011AB4EE410AF1EE66
:1032A00010FA7FF732AF94F90300942110FB01501C
:1032B000806894F903205143685001B0F0BD00BF0D
:1032C0000138E07094F90300B0F1FF3F3FF71DAF04
:1032D0000420E07001B0F0BD0130E07094F903000B
:1032E0000528FFF612AF0020E07001B0F0BD00BF6E
:1032F0009A9999999999B93F9A9999999999B9BF30
:1033000070470000002804BF0120704710B5044634
:1033100090F83D0028B9002084F83C00204600F0D9
:1033200021F8242084F83D002068C16821F4005170
:10333000C160204600F0C4FD2068016921F490417D
:103340000161416921F02A014161C16841F40051E4
:10335000C16000202021206484F83D1084F83E10D4
:1033600010BD0000016841F20000C4F2010081427A
:1033700018BF704780B586B0002143F63002019136
:10338000C4F20202536900F5704043F01003536128
:10339000536903F010030193019B0191136843F0FB
:1033A00001031360126802F001020192019A4FF4C6
:1033B000C06201920222CDE902210321049107217A
:1033C000059101A9FDF756FE06B0BDE880407047A3
:1033D000FEE70000FEE70000FEE700007047000087
:1033E0002DE9F04182B01E4690460D460446FDF799
:1033F00025FF301A00EB0807FDF720FF40F21831D7
:10340000C2F200010968C1F3CB317943019121680F
:103410008A682A40AA4227D1064618F101001FD027
:10342000FDF70CFF801BB84222D2019801990028B9
:10343000A1F1010101912168896808BF074601EAED
:103440000500A842ECD00FE088682840A8420BD1C4
:1034500088682840A84207D188682840A84203D13C
:1034600088682840A842EFD0002002B0BDE8F08173
:10347000D4E900014268B1F5827F22F0E0024260A7
:103480000AD1A168B1F5004F02D0B1F5806F03D128
:10349000016821F040010160A16AB1F5005F07D128
:1034A000016821F400510160016841F4005101609C
:1034B000012084F85100002084F85000032002B05D
:1034C000BDE8F0812DE9F04F8BB0DDE9157440F2D5
:1034D0008038CDE90832012C98BF0124C2F20008DF
:1034E0003D78B8F804202B18934200900CD997F837
:1034F00001C0B8F806200CEB0103934200F2F28001
:10350000BCF1000F06D1EDE097F801C0BCF1000F4F
:1035100000F0E880099A17984FEA1229089A6FF08C
:103520005F03120A079200F140027F2838BF6FF054
:103530001F03184440F2384602900023D0B2C2F272
:103540000006019009E000BF97F801C00699039BAF
:1035500001336345214480F0C5800198029ABF2859
:1035600080F08C80A0E000BF002D00F0A780DDF887
:1035700000B006910021039307E000BF159F059955
:103580003D780131A942A344DED2049805918840D8
:10359000000437D54FF0000A04E000BF0AF1010A29
:1035A000A245EBD006980AEB000738B20028F5D404
:1035B000002502E00135A542F0D00BEB050001B279
:1035C0000029F7D4B8F8041080B28142F2D9B8F8D3
:1035D0000620B9B28A42EDD902460B4600F028F91E
:1035E00009980AA98DF82900304602224FF0FF33CE
:1035F0008DF82890FFF778F93046FFF7E1F80128B9
:10360000FAD1D7E714980028B8D04FF0000A03E0A9
:103610000AF1010AA245B1D006980AEB000528B2CA
:103620000028F5D4002702E00137A742F0D00BEBC9
:10363000070001B20029F7D4B8F8041080B2814223
:10364000F2D9B8F80620A9B28A42EDD902460B4653
:1036500000F0EEF807980DF12A018DF82A0008987D
:1036600002228DF82B0030464FF0FF33FFF73CF974
:103670003046FFF7A5F80128FAD1D5E71798A83802
:1036800017283FF671AFA022DFE800F00E0C160CF1
:103690000C0C0C200C0C22240C0C0C0C260C280CF2
:1036A0000C0C0C2A60E700BF78680CFB023230F883
:1036B0001200049058E700BFA222F5E7002501336D
:1036C00063452144FFF449AF0CE000BFA322EBE7C0
:1036D000A422E9E7A522E7E7A122E5E7A622E3E79E
:1036E000A722E1E70BB0BDE8F08F000070B582B013
:1036F00040F28032C2F20002B2F90450A9B231B3F2
:10370000B2F906600446B0B208B3013901388AB292
:1037100083B20020002100F08BF860BA40F23844F8
:103720006E43C2F200040DF10605ADF8060000BFBD
:103730002046294602224FF0FF33FFF7D5F800BF9D
:103740002046FFF73DF80128FAD1013EF0D102B042
:1037500070BD00002DE9F04782B040F20009C8209A
:10376000C4F20209FDF772FC40F28030C2F20000A0
:103770004FF0F0114160484610210022FDF758FD3E
:103780001420FDF763FC484610210122FDF750FD8F
:1037900046F21030C0F6000040F23845471C4FF0AA
:1037A000080AC2F200050DF1070804E05FEA0A60AA
:1037B000AAF1010A38D0387840218DF80700484630
:1037C0000022FDF735FD2846414601224FF0FF3328
:1037D000FFF78AF82846FEF7F3FF0128FAD148469A
:1037E00040210122FDF724FD7C78023714F07F068A
:1037F0000CD02846394632464FF0FF33FFF774F8B5
:103800002846FEF7DDFF0128FAD1374460B2B0F157
:10381000FF3FCBDC17F8010BFF2808BF4FF4FA700D
:10382000FDF714FCC2E700BF02B0BDE8F08700005E
:103830002DE9F04F83B040F2000840F2803A9B46F9
:103840008946C4F202089042C2F2000A77D80446C0
:10385000BAF804001746904271D32A20BAF80050F3
:103860008DF80100404640210022FDF7E1FC40F2C6
:103870003846C2F200060DF10101304601224FF038
:10388000FF33FFF731F800BF3046FEF799FF0128FC
:10389000FAD14046402101222E19FDF7C9FC40F221
:1038A0003844300AC2F200048DF802000DF1020122
:1038B000204601224FF0FF33FFF716F82046FEF7AF
:1038C0007FFF0128FAD140F23844C2F200040DF122
:1038D0000301204601224FF0FF338DF80360FFF70C
:1038E00003F800BF2046FEF76BFF0128FAD13D44E4
:1038F00040F23844280AC2F200048DF8040001A9FD
:10390000204601224FF0FF33FEF7EEFF2046FEF780
:1039100057FF0128FAD140F23844C2F200040DF1F9
:103920000501204601224FF0FF338DF80550FEF7C8
:10393000DBFF00BF2046FEF743FF0128FAD1D9453F
:1039400077D8BAF80600584573D32B20BAF802503E
:103950008DF80600404640210022FDF769FC40F248
:103960003844C2F200040DF10601204601224FF056
:10397000FF33FEF7B9FF00BF2046FEF721FF012805
:10398000FAD140464021012205EB0906FDF750FC23
:1039900040F23844300AC2F200048DF807000DF1FD
:1039A0000701204601224FF0FF33FEF79DFF00BFC5
:1039B0002046FEF705FF0128FAD140F23844C2F252
:1039C000000402A9204601224FF0FF338DF8086061
:1039D000FEF78AFF2046FEF7F3FE0128FAD15D4488
:1039E00040F23844280AC2F200048DF809000DF1B3
:1039F0000901204601224FF0FF33FEF775FF00BF9B
:103A00002046FEF7DDFE0128FAD140F23844C2F22A
:103A100000040DF10A01204601224FF0FF338DF81A
:103A20000A50FEF761FF00BF2046FEF7C9FE0128DD
:103A3000FAD12C208DF80B00404640210022FDF7E2
:103A4000F7FB40F23844C2F200040DF10B012046AE
:103A500001224FF0FF33FEF747FF00BF2046FEF77D
:103A6000AFFE0128FAD1404640210122FDF7E0FBDC
:103A700003B0BDE8F08F00002DE9F04F87B0DDE91D
:103A8000126407462046069391468A46012E98BF47
:103A90000126FCF7EFFD0546000400F07B80DDF811
:103AA00044B04FF6FE700130059017E0059A884645
:103AB0001099C0B2069B1544CDE9001B0390B8B223
:103AC00051464A460296FFF7FDFC9BF80000013480
:103AD00010FB06772804414600F05C802078C0285F
:103AE000E4D3D1280AD0D02840D114F8010F00F136
:103AF0007002D2B22F2A0DD8303007E014F8010F2F
:103B000042B212F1710F1BDC02F170004FF6FE722F
:103B10008046CDE7A0F18103062B27D8A8204FF6D9
:103B2000FE724FF0A808DFE803F0052323072325E2
:103B3000290000BFBCE700BFAA204FF0AA08B7E7E2
:103B4000A0F19103062B11D8B8204FF6FE724FF06A
:103B5000B808DFE803F0050B0B070B171B0000BFCD
:103B6000A6E700BFBA204FF0BA08A1E74FF6FE72F1
:103B700008469CE7B2204FF0B20899E7AF204FF01B
:103B8000AF0895E7B3204FF0B30891E7BF204FF09F
:103B9000BF088DE707B0BDE8F08F000070B584B0B6
:103BA00000250446C4F2020536208DF8030028469D
:103BB00040210022FDF73CFB40F23846C2F20006ED
:103BC0000DF10301304601224FF0FF33FEF78CFE6A
:103BD0003046FEF7F5FD0128FAD1284640210122A2
:103BE000FDF726FB601E032800F2FD80DFE800F0F1
:103BF000023E7CBC40F238440020C2F200048DF842
:103C0000040001A9204601224FF0FF33FEF76CFEAD
:103C10002046FEF7D5FD0128FAD140F28030C2F2ED
:103C200000004FF0F01100244160046000200021EA
:103C3000EF22EF23FFF7FCFDADF8054040F23844DA
:103C40004FF46146C2F200040DF1050520462946F5
:103C500002224FF0FF33FEF747FE00BF2046FEF77B
:103C6000AFFD0128FAD1013EF0D1BCE040F238446A
:103C70006020C2F200048DF807000DF10701204614
:103C800001224FF0FF33FEF72FFE00BF2046FEF764
:103C900097FD0128FAD140F28030C2F200004FF0C7
:103CA000F01100244160046000200021EF22EF2386
:103CB000FFF7BEFDADF8084040F238444FF46146CE
:103CC000C2F2000402AD00BF2046294602224FF096
:103CD000FF33FEF709FE00BF2046FEF771FD012805
:103CE000FAD1013EF0D17EE040F23844C020C2F269
:103CF00000048DF80A000DF10A01204601224FF060
:103D0000FF33FEF7F1FD00BF2046FEF759FD012805
:103D1000FAD140F28030C2F200004FF0F011416061
:103D20004FF4A001016000200021EF22EF230024C6
:103D3000FFF77EFDADF80B4040F238444FF461468A
:103D4000C2F200040DF10B052046294602224FF075
:103D5000FF33FEF7C9FD00BF2046FEF731FD012805
:103D6000FAD1013EF0D13EE040F23844A020C2F248
:103D700000048DF80D000DF10D01204601224FF0D9
:103D8000FF33FEF7B1FD00BF2046FEF719FD012805
:103D9000FAD140F28030C2F200004FF0F0114160E1
:103DA0005021016000200021EF22EF230024FFF7C3
:103DB0003FFDADF80E4040F238444FF46146C2F288
:103DC00000040DF10E0500BF2046294602224FF0E7
:103DD000FF33FEF789FD00BF2046FEF7F1FC012806
:103DE000FAD1013EF0D104B070BD00007047000070
:103DF000FEF746B9B0B592B0002443F64000CDE9D5
:103E00000A44CDE908440594CDE90344CDE90144D1
:103E10000094C4F202000168022541F08051016063
:103E2000006800F080500090009847F20000009475
:103E3000C4F20000016865F38F310160006800F48E
:103E4000404000900098012006904FF48030079089
:103E50004FF480000D9019200E90A820CDE90F0599
:103E60000420119006A80C95FEF7D2FA20B1EFF3CA
:103E7000108072B6FEE700BF0F20CDE901054FF4B8
:103E80008050CDE9040401A802210394FEF7B0F9A3
:103E900020B1EFF3108072B6FEE700BF12B0B0BDE4
:103EA0004EF68850CEF20000016841F470010160C6
:103EB0007047000040F29040C2F20000FFF760B887
:103EC00010B504460068D4E902C22369016921F4EF
:103ED000405111430161626943EA0C01E3691143F6
:103EE000C268194349F20C639A431143C1604169A6
:103EF000A26921F4407141F20043114340F4806211
:103F0000C4F201039A42416102D1FEF737FA01E09F
:103F1000FEF720FAE16963681922B1F5004FA0FBB2
:103F2000020123D15A00DB0FFCF7F0F948F21F51D0
:103F3000C5F2EB11A0FB01235A094FF69C73C0F6A2
:103F4000FF7303F1805302FB0300322303EBC00035
:103F5000A0FB01014FF4F87000EA111000EB021011
:103F6000C1F3421108442168886010BD9A009B0F7C
:103F7000FCF7CCF948F21F51C5F2EB11A0FB01236D
:103F80005A094FF69C73C0F6FF7302FB03003223FD
:103F900003EB0010A0FB0101F02000EA511000EB40
:103FA0000210C1F3431108442168886010BD00006D
:103FB000FEE7000040F28830C2F200004178B1FA1A
:103FC00081F149094170704780B540F60000C4F2A4
:103FD00002004FF40051FDF723F940F28830C2F29D
:103FE00000008178B1FA81F1490981700020FFF762
:103FF0007DFB40F20000C2F200000121017080BD93
:1040000098B040F2883543F6B570C2F20005C0F6AC
:104010000000A86443F6C97040F20008C0F6000032
:10402000C4F202082865FEF739F8FFF7E3FE00271F
:1040300043F630000D971697C4F20200016808F5A8
:10404000006441F0040101600168012201F00401F3
:1040500016911699169701684FF4005641F08001A9
:10406000016001684FF0010A01F080011691169974
:104070001697016841F001010160016801F001013A
:10408000169116991697016841F0020101600068C7
:104090004FF4005100F00200169016982046FDF7EC
:1040A000C7F84046502100224FF05009FDF7C0F8F4
:1040B000CDE9096A09AE20463146CDE90B77FCF718
:1040C000D9FF40463146CDE9099ACDE90B77FCF797
:1040D000D1FF08F5806948463146CDE909A70B971D
:1040E000FCF7C8FF40F23840A8F55041C2F200008A
:1040F0004FF4827202244FF4007380E886000A2194
:10410000C0E90374C0E905A3C761C0E90877C0E945
:104110000A71FEF759FB28B1EFF3108072B600BFA9
:10412000FEE700BF40F29040A8F5FE31C2F2000069
:104130000322C0E9001709A9C0E9027281E814044A
:104140000F210DAA09AE82E81204CDE910713146A3
:10415000CDE91677076187610C97FEF793FD28B1CB
:10416000EFF3108072B600BFFEE700BF40F2904050
:10417000C2F2000016A9FEF7F9FC28B1EFF3108097
:1041800072B600BFFEE700BF40F2E430A8F5D631BA
:10419000C2F2000048F2A06200244FF48043C0F253
:1041A000010280E81600C0E90343C0E90544C0E904
:1041B0000744FDF749F828B1EFF3108072B600BF4D
:1041C000FEE700BF40F2D840A8F57041C2F20000FF
:1041D0000C234FF4E13280E81600C0E90344C0E943
:1041E0000534C461FFF78EF820B1EFF3108072B68A
:1041F000FEE700BF40F29044C2F2000420463C219A
:10420000FEF748FE2046FEF7FBFCFFF7A3FA01206D
:104210000127FFF7C3FC40F2E438C2F2000800BFF8
:10422000780081B2404602226423FDF7BFF80028DF
:1042300008BF2F70013778B2B0F1FF3FF0DC70207B
:1042400005F11004E882722068852046C5F82080B8
:10425000C5F83480FCF7E2FE1420FCF7F7FE40F2CC
:10426000000B40F22C074FF0010805F13800C2F2B4
:10427000000BC2F200070490CDE9054966E000BFDB
:1042800040F22C00C2F20000D0F8940001F074F962
:104290000B4646F2F24102463046C0F60001FCF7FA
:1042A000ADF840F2103A4FF00108C2F2000AAA201D
:1042B00028214FF6FF720023CDF80080CDE901A838
:1042C0000396FFF7D9FB40F20000C2F2000000EBBA
:1042D0008B0783467C68686801F04EF946F2EC492A
:1042E00041EC100BC0F600093046494622468DEDE0
:1042F000000BFCF783F8142078214FF6FF7200239F
:10430000CDE9008ACDF808800396FFF7B5FB3C693C
:10431000A86801F031F941EC100B304649462246BD
:104320008DED000BFCF76AF814208C214FF6FF721C
:104330000023CDE9008ACDF808800396FFF79CFBA7
:1043400040F22C07DDE90549C2F200074846012189
:10435000FCF760FFB0FA80F04109049800F0B8F96A
:104360002046FCF7E5FD2046FCF746FE2046FCF71C
:104370003FFE204685ED010AFCF7D4FD85ED020ADB
:104380009BF80010A878002900F0AD80002840F0CC
:10439000AA800024304632218BF80040FCF789F9CE
:1043A00040F210394FF0010BB846C2F200094FF647
:1043B000FF7A34E0D8F8000001F0DEF80B4646F250
:1043C000F24102465846C0F600015E46FCF716F878
:1043D00040F2883540F22C07C2F200054FF6FF7913
:1043E000C2F20007E87849F2B242844208BF4A4666
:1043F00040F2103908994FF0010BC2F20009AA20CF
:1044000000234FF6FF7ACDF800B0CDE9019B03966B
:10441000FFF732FB0134052C08F194085AD0D8F884
:10442000000097F9BC710790E8782022844208EBDD
:104430008700C3683046A3A108BF3E22FBF7DEFF1A
:1044400004EB84001422E97802EB800085B28C42F0
:1044500049F2B2424FF0140029464FF0000308BF62
:104460005246CDE900B9CDF808B0B3460396FFF740
:1044700003FB98F818000895022819D0012899D054
:1044800040F2883540F22C070028C2F200055E4653
:104490004FF6FF79C2F20007A4D1D8F8002046F207
:1044A000E6413046C0F60001FBF7A8FF9AE700BFDF
:1044B000079807EB870140B2C90001EB8000404438
:1044C000C26946F200515846C0F600015E46FBF74D
:1044D00095FF7DE7A878DDE9054940F2000B4FF034
:1044E0000108C2F2000B00283FF430AF3046322101
:1044F000FCF7DFF897F9BCB146F2FA4107EB8B0005
:10450000C268D7F800903046C0F60001FBF776FF8E
:1045100040F21030C2F20000CDE90108142014214D
:104520004FF6FF720023CDF800800396FFF7A4FA40
:10453000387E02280ED0012822D040F22C09C2F287
:10454000000970BBD9F8002046F2E6413046C0F6BB
:10455000000111E04FFA89F040F22C090BEB8B01BE
:10456000C2F2000909EBC10101EB8000C26946F209
:1045700000513046C0F60001FBF740FF11E000BFDC
:1045800040F22C09C2F20009D9F8000000F0F4FF53
:104590000B4646F2F24102463046C0F60001FBF7F8
:1045A0002DFF40F2103AC2F2000AAA2014214FF661
:1045B000FF720023CDF80080CDE901A80396FFF734
:1045C0005BFA40F20000C2F2000000EB8B077C684F
:1045D000686800F0D1FF46F2EC4B41EC100BC0F6DE
:1045E000000B3046594622468DED000BFBF706FFC7
:1045F000142078214FF6FF720023CDE9008ACDF810
:1046000008800396FFF738FA3C69A86800F0B4FF09
:1046100041EC100B3046594622468DED000BFBF75E
:10462000EDFE14208C214FF6FF720023CDE9008AA5
:10463000CDF808800396FFF71FFA59F8948F46F2D9
:10464000FA4199F928B1C0F6000109EB8B00C26864
:1046500030460124FBF7D2FE142028214FF6FF72CA
:104660000023CDE9004A02940396FFF705FA99F872
:104670001800C8B101283FF403AE02287FF411AE40
:1046800040F22C020BEB8B01C2F200024FFA88F0D1
:1046900002EBC10101EB8000D0F8B02046F20051DE
:1046A0003046C0F600010AE040F22C00C2F20000E1
:1046B000D0F8942046F2E6413046C0F60001FBF700
:1046C0009DFEEEE5256320252D32307300000000AD
:1046D00070B50E460446FCF7B1FD2178062900F2BC
:1046E0006E800546DFE801F0040A24366B6B4A0051
:1046F000002E64D001202070656070BD606840F2BB
:104700002401002EA5EB0000C2F200013ED0498832
:10471000884254D9A06901210028217318BF80471D
:10472000206A002818BF804706202070A56070BD51
:10473000606940B140F224006168C2F20000028862
:10474000691A914232D92069002818BF8047002099
:10475000207070BD002E18BF70BD40F2240160684B
:10476000C2F200014968281A884228D960690028E5
:1047700018BF804700202070A56070BD66B1206A18
:1047800001212173D8B1BDE87040004749688842D3
:1047900016D20020207070BDE06900260028267324
:1047A00018BF80472670A56070BD00BF3EB1A168EC
:1047B0004068691A814202D903202070656070BD8B
:1047C00002202070A56070BD5FEA400C08BF91F028
:1047D000000F4FEA8C234FEAC12243EA51514FEABE
:1047E0001C5018BF00F5F0404FEA300018BF41F0F0
:1047F00000415FEA6C5C00F02980BCF1FF3F08BF1C
:1048000040F080407047130C06BF12044FF0100CAC
:104810004FF0000C130E04BF12020CF1080C130F22
:1048200004BF12010CF1040C930F04BF92000CF1B1
:10483000020CD30F04BF52000CF1010C11464FF0D3
:104840000002A0F11F00A0EB0C00704711F0004F18
:1048500008BF704731F000413FF4D5AF0B0C06BFE5
:1048600009044FF0100C4FF0000C0B0E04BF0902AE
:104870000CF1080C0B0F04BF09010CF1040C8B0F99
:1048800004BF89000CF1020CCB0F04BF49000CF1EE
:10489000010CCCF1200322FA03F341EA030102FAEE
:1048A0000CF2A0EB0C0000F10100704723F07F47F1
:1048B00020F07F4C80EA030000F00040ACEB0703DF
:1048C00003F57C5303F1FF032DE9804909B44FEA56
:1048D000144324EA03484FEA154B25EA0B4E0FF226
:1048E000042606EB13273E7803FB0667C7F500078F
:1048F00007FB06F64FEAD64606F102064FEA5437A2
:1049000007FB066CCCF1005C4FEA1C472CEA074C15
:104910000CFB06F507FB06F404EB15464FEA96166A
:1049200049085FEA320234BF00204FF000404FEAEE
:10493000D13706FB07FC4FEA1C4C0CFB0BF7D21BD4
:1049400003FB0CF761EB07010CFB0EF7B0EB074024
:1049500072EB17420CFB08F734BFA2EB0742B2EB35
:10496000074261EB17414FEA0C444FEA910706FBFF
:1049700007FC4FEA1C4C0CFB0BF7B0EBC74072EB8B
:10498000573203FB0CF734BFA2EBC742B2EBC7426E
:1049900061EB57310CFB0EF7B0EBC70072EB5772AF
:1049A0000CFB08F734BFA2EBC702B2EBC70261EB06
:1049B00057714FEA816141EA92114FEA826242EAFD
:1049C00090124FEA806004EBCC04039F4FEAD1378A
:1049D00006FB07FC4FEA1C4C0CFB0BF7D21B03FB3E
:1049E0000CF761EB07010CFB0EF7B0EB074072EB25
:1049F00017420CFB08F734BFA2EB0742B2EB0742A9
:104A000061EB17414FEA8C5504EB9C244FEA910768
:104A100006FB07FC4FEA1C4C0CFB0BF7B0EBC74046
:104A200072EB573203FB0CF734BFA2EBC742B2EB79
:104A3000C74261EB57310CFB0EF7B0EBC70072EBCE
:104A400057720CFB08F734BFA2EBC702B2EBC702E8
:104A500061EB57714FEA816141EA92114FEA82623C
:104A600042EA90124FEA806015EB4C2544F10004B5
:104A70004FEAD13706FB07FC4FEA1C4C0CFB0BF747
:104A8000D21B03FB0CF761EB07010CFB0EF7B0EB3D
:104A9000074072EB17420CFB08F734BFA2EB07424A
:104AA000B2EB074261EB17414FEA813141EA924193
:104AB0004FEA823242EA90424FEA80304FEA0C7667
:104AC00015EB1C1544F1000448EA03434EEA0B4879
:104AD0004FF0000EB2EB080C71EB030724BF6246E7
:104AE00039464EEB0E0E4FF0000B00185241494173
:104AF0004BEB0B0BB2EB080C71EB03077BF1000BDC
:104B000024BF624639464EEB0E0E4FF0000B0018E4
:104B1000524149414BEB0B0BB2EB080C71EB030715
:104B20007BF1000B24BF624639464EEB0E0E51EA74
:104B3000020718BF46F0010616EB0E7655F100028B
:104B400054F1000103D5BDE88901BDE80088BDE846
:104B50008901BDE80048B619524141EB0101A3F1BA
:104B60000103704780807F7E7D7C7B7A79787776C1
:104B700076757473727171706F6E6E6D6C6C6B6A3A
:104B80006A696868676666656464636362616160D8
:104B9000605F5F5E5E5D5D5C5C5B5B5A5A59595855
:104BA00058575756565555555454535352525251BF
:104BB000515050504F4F4F4E4E4D4D4D4C4C4C4B15
:104BC0004B4B4A4A4A49494948484847474747465C
:104BD0004646454545444444444343434342424298
:104BE000424141419C46002B30D477002BD04FEA04
:104BF00037071CB503B44FF010004FF01001BAF1A5
:104C0000000F06D0BCF1000FDCBF40F0080040F000
:104C100008014FF000000FBCBDE810400BF1010B84
:104C2000BBF1010F08BF5FEA170722BF12F10102B3
:104C300011F101014FF0004143F1000300F0004089
:104C400043EA00007047F9D35708D0E746EA064622
:104C50004FEA164613F1400F1FDD13F1200FDFBF9F
:104C600016430A46002120335B42BED0C3F1200721
:104C700046EA06464FEA164602FA07F746EA0706EC
:104C800022FA03F2C3F1200701FA07F742EA07020A
:104C900021FA03F14FF00003A7E746EA020646EACD
:104CA00006464FEA164646EA0106BCBF46EA0646F5
:104CB000360C4FF000034FF000024FF0000194E774
:104CC0002DE9804C70B49A46934691E8380007C8A5
:104CD00031EA400C48BF34EA430C03D5FFF7E6FD48
:104CE000FFF780FFF0BCBDE8008C2DE9804C70B46C
:104CF0009A46934691E8380007C810F0804F08BFE5
:104D000013F0804F03D100F005F8FFF76BFFF0BC04
:104D1000BDE8008C20F07F4723F07F4C80EA030041
:104D200000F0004007EB0C03A3F57C53A3F1FE0356
:104D300092F0000F00F0B38095F0000F00F0778044
:104D40002DE901494FEA114021EA00484FEA144693
:104D500024EA064700FB06FC08FB06F607FB08F8FA
:104D600018EB06484CEB164C00FB07F718EB07480E
:104D70004CEB17404FEA124B22EA0B4E4FEA154616
:104D800025EA06470BFB06FC0EFB06F607FB0EFEAC
:104D90001EEB064E4CEB164C0BFB07F71EEB074EBB
:104DA0004CEB174B18EB0B0840F1000018EB0E0B07
:104DB00058EB000840F100008F1A4FF000014FF04F
:104DC00000063CBFC943661B14BFB5EB040C0021B1
:104DD0003CBFC943F61B4FEA174427EA04454FEA94
:104DE0001C472CEA074C04FB076205FB07F70CFB8A
:104DF00005F616EB074642EB174204FB0CFC16EBDC
:104E00000C4642EB1C421BEB060658EB02024141EA
:104E10004EEA8E0E46EA9E0601D5BDE80189B61916
:104E2000524141EB0101A3F10103BDE801894FEAC1
:104E3000144524EA05464FEA114721EA074C05FBD1
:104E400007F406FB07F70CFB06F111EB074144EBF7
:104E5000174405FB0CFC11EB0C4144EB1C444FEADE
:104E6000124722EA074C05FB07F206FB07F70CFB8B
:104E700006F616EB074642EB174205FB0CFC16EB59
:104E80000C4642EB1C456A1854F1000148BF7047BC
:104E9000B619524141EB0101A3F10103704795F0AE
:104EA000000F37D04FEA114221EA02464FEA144779
:104EB00024EA074C02FB07F106FB07F70CFB06F49C
:104EC00014EB074441EB174102FB0CFC14EB0C44C0
:104ED00041EB1C414FEA154725EA074C02FB07F559
:104EE00006FB07F70CFB06F616EB074645EB1745E6
:104EF00002FB0CFC16EB0C4645EB1C42121951F15F
:104F0000000148BF7047B619524141EB0101A3F1BE
:104F1000010370474FEA144524EA05464FEA11475A
:104F200021EA074C05FB07F106FB07F70CFB06F22D
:104F300012EB074241EB174105FB0CFC12EB0C4254
:104F400051EB1C414FF0000648BF7047921841EBEF
:104F50000101A3F10103704703B4019841000098D7
:104F600050EAC12018BF04204A0D18BF40F00100CC
:104F700040F2FF72B2EB515F08BF40F0020001281F
:104F800008BF052002B0704730380A2801D201203E
:104F9000704700207047000010B500290AD008783B
:104FA000002807D005487844FBF776FF002801D099
:104FB000002010BD0248784410BD0000821500009A
:104FC0007A15000021F0004201F00043A2F1605286
:104FD000B2F5801F28BFD2F17F6C0BD95FEA001CAD
:104FE00043EAC20242EB507018BF704728BF20F05E
:104FF00001007047B2F5801FBCBF184670474FEAEA
:10500000410C1CF5001F02D2084600F033BB70B5FE
:1050100000F070F900000089FFF7F6BF4FF0004084
:10502000A0F580007047000010B591EA030F48BF5B
:1050300083F0004300F1BA81841A71EB030C05D2AE
:10504000121943EB0C03001B61EB0C014FEA1154E6
:10505000A4EB135CDFF81CE11EEA430F18BF9EEAC5
:10506000445F00F0748021EA045123EA0E0343F404
:105070008013DCF1200E32D322FA0CFE10EB0E006E
:1050800023FA0CFE41EB0E01CCF1200E03FA0EFECA
:1050900010EB0E00CCF1200E51F10001B1F5801F94
:1050A00032D201EB045112FA0EF2BDE8104058BFA3
:1050B0007047401C38BF5FEA420218BF70470028A3
:1050C00014BF20F0010041F100014FEA410313F544
:1050D000001F38BF7047A1F1C04100F059B9012A43
:1050E00043EB0302ACF1200CDCF11F0E32BF4FF09A
:1050F000000E23FA0CF310EB030041EB0451B4EB68
:10510000115FD0D0A1EB045101F58011490801EBEA
:1051100004515FEA30000ED350F1000038BF12FA9C
:105120000EFE08D1BDE81040C9E7401C38BF5FEA59
:105130004202CAD1C3E7BDE810404FEA410313F56C
:10514000001F38BF7047A1F1C04100F021B99EEAAD
:10515000445F08D011EA5E0FBDE8104004BF01F0C3
:10516000004100207047BDE8104070B500F0C2F863
:1051700064FBBE3E0000E0FFB0FA80F310FA03F1DA
:105180000AD0C3F11D0303F580634FEA03524FEACF
:10519000415002EBD12170474FF0000070470000F2
:1051A00070B5DFF848C11CEA111E1EBF1CEA1315BA
:1051B0009EEA0C0F95EA0C0F00F06F8081EA030461
:1051C0004EEAD47EAE4421EA4C1123EA4C1341F45A
:1051D000801143F48013AEF17F7EA1FB024CA0FB53
:1051E0000365361955EB0C05A1FB034C4CF100038C
:1051F000A0FB021C16EB0C06654153F100030942AB
:1052000018BF46F0010613F4007F0BD14FEA0331BB
:105210004FEA053041EA155140EA165034036FF069
:1052200003020AE04FEAC3214FEAC52041EA555183
:1052300040EA5650F4026FF0020202EB2E4201EBFC
:10524000025585EACE710AD05FEA440C18BF24F0FB
:10525000004450F1000041F1000120EAD47040F216
:10526000FE7C624500D270BDA84214BF4FF080445E
:105270004FF04044002E08BF0024BEF1806FA8BF4D
:10528000A1F1C041BDE8704080F2828001F1C041CF
:1052900001F000414FF0000070470CEA13159EEA40
:1052A0000C0F18BF95EA0C0F06D081EA030E4FF0E1
:1052B00000000EF0004170BD00F01CF88900013EB6
:1052C00000F007B800F009B84FEA430C5FEA5C5CF5
:1052D00008D081EA030100F05BB84FEA410C5FEAB5
:1052E0005C5CF6D102494FF0000070470000FF07F8
:1052F0000000F87F0EF1020E2EF0030E5EF8046B34
:10530000364205D4012A43EB030515F5001F12D8D8
:10531000012841EB010C1CF5001F0CD80ED14FEAFF
:10532000D17C0CEB4C0C0CF1020C15F5001F08BFE6
:105330004CEBD37C04E04FF0080C01E04FEAD37C47
:105340000CEB4C0526FA05F606F00706B6F1040C40
:1053500006D20EEB860CBDE870404CF0010C6047A5
:10536000DFE80CF0090B02024FF00041A1F500212B
:105370004FF0000070BD19461046012851EB0104A2
:1053800018BFD4F5001484BF002001F0004170BDA7
:105390000808A0F500114FEA3101704710B591EAF5
:1053A000030F48BF83F000433FF546AE841A71EB0C
:1053B000030C07D28CF0004C121943EB0C03001BBA
:1053C00061EB0C014FEA1154A4EB135CDFF8A4E18C
:1053D0001EEA430F18BF9EEA445F00F0B48021EA42
:1053E000045123EA6E035242C3EB6E0338BF5B1EC7
:1053F000DCF1200E25D322FA0CFE10EB0E0043FA4E
:105400000CFE41EB0E01CCF1200E03FA0EFE10EB68
:105410000E00CCF1200E51F1000129D401EB045112
:1054200012FA0EF2BDE8104058BF7047401C1CBF76
:10543000B2F1004F704700280CBF491C20F001005A
:10544000704712EB020E43EB030218BF4FF0010E40
:105450004EEA4202ACF1200CDCF11E0E56D943FAA2
:105460000CFE10EB0E00CCF11E0E51F1FF31D5D524
:105470000EF1010E12FA0EFE404141EB010101EB6B
:10548000445C5FEA5C5C10D901EB045110EBDE7008
:1054900038BFBEF1004FBDE8104018BF704700286C
:1054A0000CBF491C20F00100704734D24FEAD42CC5
:1054B00024F4006411F500111BD0B1FA81F20B3A0B
:1054C000A41AA41ED2F12003914030FA03F3194329
:1054D000904001EBCC7101EB0451002CBDE8104071
:1054E000A8BF704701F1C04101F000414FF000003A
:1054F0007047B0FA80F310FA03F102D1BDE8104012
:105500007047E41A173C4805C90AE2E701EB045169
:10551000BDE81040704749104FEA300001EB0451DC
:10552000BDE8104002E04FF0000170474A0008BF9C
:105530000042F8D0B2F5001F28BF704701F00041CB
:105540004FF0000070479EEA445F07D011EA5E0FFB
:10555000BDE8104004BF002100207047BDE81040A6
:1055600070B5FFF7C7FE00BF40DFF63E104683F080
:10557000004170470000E0FF43004FEAD30C4FEAC0
:105580003C0C43401FBF40070CF1605113F0FE4F2D
:1055900070471CF0006F03D10CF0004100207047F1
:1055A0000CF0004343EA507040EACC0010B500F024
:1055B0000EF800BF000000924FEA0001FFF7E8BEBE
:1055C0004FF00041A1F500214FF0000070470EF1AF
:1055D000020E2EF0030E5EF8044B244204D44FEA70
:1055E0004102B2F17F4F11D84FEA4003B3F17F4F30
:1055F0000CD80ED14FEAD07C0CEB4C0C0CF1020C09
:10560000B2F17F4F08BF4CEBD17C04E04FF0080CA7
:1056100001E04FEAD17C0CEB4C0324FA03F404F0D4
:105620000704B4F1040C06D20EEB840CBDE8104064
:105630004CF0010C6047DFE80CF0070802024FF065
:105640000040A0F5800010BD0846420018BFD2F10E
:10565000807288BF00F0004010BDF1EE100A4FF6D6
:10566000FF71C0F2C03120EA010040F04070E1EE6D
:10567000100A7047FF2141EAD050C0057047FBF780
:1056800073B90400000800000000000000020001DF
:105690000000100002400000000000A00000000018
:1056A00005400000000000C8000000000C400000A1
:1056B0000000409C00000000194000000020BCBE1B
:1056C0000000000034400000BFC91B8E0000000431
:1056D000B5400000504BCFD06607E2CF010000007C
:1056E0006C4100003E8251AADFEEA73401000000A9
:1056F000D9420000DCB5A0E23A301F97FFFFFFFF60
:10570000B4450000FD25A0C8E9A3C14FFFFFFFFF7E
:10571000FF3F00000000008000000000FF3F00008D
:1057200000000080000000000000000000000000F9
:105730000102030406070809000000000102030437
:105740000000000000000000000000000000000059
:1057500000000010001000100010001000100000E9
:1057600000100000002800280028000000000000B1
:1057700000000000000000240024007E002400241B
:10578000007E002400240000001000380054005067
:105790000038005400540038001000200054005815
:1057A00000300028005400140008000000100028F9
:1057B00000280010003400480048003400000010A9
:1057C00000100010000000000000000000000000B9
:1057D0000008001000200020002000200010000819
:1057E0000000002000100008000800080008001059
:1057F0000020000000100038001000280000000009
:105800000000000000000000000000100010007CFC
:105810000010001000000000000000000000000068
:105820000000000000100010002000000000000038
:105830000000003800000000000000000000000030
:105840000000000000000000000000100000000840
:1058500000080010001000100010002000200000C0
:105860000038004400440054004400440044003820
:105870000000001000300050001000100010001058
:10588000001000000038004400440004000800102C
:105890000020007C000000380044000400180004D0
:1058A0000004004400380000000800180028002808
:1058B0000048007C000800080000007C0040004018
:1058C0000078000400040044003800000038004460
:1058D0000040007800440044004400380000007C90
:1058E000000400080010001000200020002000002C
:1058F00000380044004400380044004400440038AC
:1059000000000038004400440044003C000400440F
:10591000003800000000000000100000000000003F
:105920000000001000000000000000100000000057
:10593000000000100010002000000000000C0030EB
:1059400000400030000C00000000000000000000DB
:10595000007C0000007C000000000000000000004F
:10596000006000180004001800600000000000380B
:1059700000440004000800100010000000100000A7
:1059800000380044004C0054005C004000400038E7
:10599000000000100028002800280028007C004497
:1059A00000440000007800440044007800440044B3
:1059B00000440078000000380044004000400040EF
:1059C00000400044003800000070004800440044DB
:1059D00000440044004800700000007C004000408B
:1059E000007C004000400040007C0000007C004043
:1059F00000400078004000400040004000000038B7
:105A0000004400400040005C0044004400380000B6
:105A1000004400440044007C00440044004400442E
:105A200000000038001000100010001000100010DE
:105A30000038000000040004000400040004000416
:105A4000004400380000004400480050006000504E
:105A50000048004800440000004000400040004072
:105A6000004000400040007C00000044006C006CDE
:105A7000005400440044004400440000004400641A
:105A8000006400540054004C004C004400000038F6
:105A90000044004400440044004400440038000036
:105AA000007800440044004400780040004000407A
:105AB0000000003800440044004400440044005406
:105AC0000038000400780044004400440078004896
:105AD0000048004400000038004400400030000846
